:100000000C9465020C9496020C9496020C94960241
:100010000C9496020C9496020C9496020C94960200
:100020000C9496020C9496020C9496020C949602F0
:100030000C9496020C9496020C9496020C949602E0
:100040000C9496020C9496020C9496020C949602D0
:100050000C9496020C9496020C9496020C94DA1B63
:100060000C9496020C944E1C0C94241C0C94960236
:100070000C9496020C9496020C9496020C949602A0
:100080000C9496020C9496020C9496020C94960290
:100090000C9496020C9496020C9496020C94960280
:1000A0000C9496020C9496020C9496020C94960270
:1000B0000C9496020C9496020C9496020C94960260
:1000C0000C9496020C9496020C9496020C94960250
:1000D0000C9496020C9496020C9496020C94960240
:1000E0000C9496020C9405030C9412030C941007C4
:1000F0000C9462070C944C1B0C9493060C94A10472
:100100000C94B1040C9447050C9436070C949A0394
:100110000C942C050C9409030C9432050C940304E4
:100120000C942F050C94600E0C940B060C94FD029D
:100130000C94CD060C9450040C94AF050C94001B49
:100140000C949F0F0C94FF040C94AD040C941905AF
:100150000C942A030C94A9060C948C050C94E006CC
:100160000C9432030C94081B0C94BE060C94A90347
:100170000C9429070C94EB040C94061B0C948D0F23
:100180000C9413070C94951B0C943C030C940D07D2
:100190000C94021B0C944A070C9467030C944107BF
:1001A0000C94CB030C945A070C94E6020C94DE05D5
:1001B0000C94041B0C94A6060C94300F0C941E0790
:1001C0000C9416030C94DB050C94EB020C940103C5
:1001D0000C94D10E0C94B6040C944C0A0C94770534
:1001E0000C9424030C946A030C94B4040C94920FA2
:1001F0000C94AF1A0C942E060C94481D0C945707BF
:100200000C946D030C940C030C946B070C94AE04CB
:100210000C9478070C942E030C945A060C946105E8
:100220000C9474050C94F5060C94B5040C945407C6
:100230000C9484060C94A2040C940A1B0C942003C6
:100240000C94CD0E0C941C030C9438030C94B7043E
:100250000C94BD030C9475070C94E1050C940007F5
:100260000F0900001209000015090000180900001C
:100270001B0900001E0900002109000024090000DC
:10028000270900002A0900002D090000300900009C
:100290003309000036090000390900003C0900005C
:1002A0003F0900004209000045090000480900001C
:1002B0004B0900004E0900005109000054090000DC
:1002C000570900005A0900005F09000062090F0089
:1002D0007309000076090F00B4090000B7090F0088
:1002E000C8090000CB090F00090A00000C0A0F0022
:1002F0001D0A0000200A0F005E0A0000610A0F00BC
:10030000720A0000750A0F00B30A0000B60A000066
:10031000B90A0300BE0A0000C10A0300D90A00009E
:10032000DC0A0000DF0A0300E40A0000E70A030019
:10033000FF0A0000020B0000050B03000A0B00007F
:100340000D0B0300250B0000280B0F00390B0000DC
:100350003C0B0F007A0B00007D0B0000800B0300AC
:10036000850B0000880B0300A00B0000A30B0F00FF
:10037000B40B0000B70B0F00F50B0000F80B0000EA
:10038000FB0B0300000C0000030C03001B0C00001F
:100390001E0C0F002F0C0000320C0F00700C000020
:1003A000730C0000760C03007B0C00007E0C030035
:1003B000960C0000990C0F00AA0C0000AD0C0F0069
:1003C000EB0C0000EE0C0000F90C0000FC0C00002F
:1003D000070D00000A0D000060025E000000220010
:1003E000250028002B002E003100340002010000FF
:1003F000050108010B0105050505070508080808A2
:10040000020202020A0A08080404040401010101AC
:1004100001010101030303030303030304070707A7
:100420000C0C0C0C0C0C0C0C02020202060606064C
:10043000060606060B0B0B0B0B0B0B0B0102102019
:10044000200808102040102040800201020108040A
:10045000020101020408102040808040201008049E
:1004600002018004020180402010080402010804F7
:10047000020101020408102040800102040810203B
:10048000408000000A0B02090C0D0E08070304014E
:10049000000000000000000000000000000000005C
:1004A0000000000000000000000000000000121129
:1004B000100000000000000000000000000000002C
:1004C0000000000000000000481D11241FBECFEFF7
:1004D000DFEFDEBFCDBF00E00CBF15E0A0E0B2E073
:1004E000E2E8FAE400E00BBF02C007900D92A035ED
:1004F000B107D9F72DE0A0E5B5E001C01D92A63304
:10050000B207E1F712E0C5E6D2E000E006C02197AD
:100510000109802FFE010E943723C436D10780E0F5
:100520000807A9F70E94711E0C943F250C94000047
:1005300040916C0850916D08ECE6F7E081E090E0A6
:100540004230510530F410926D0810926C080895F5
:10055000C901218121939C012F5F3F4F421753070F
:10056000B9F790936D0880936C080895282F30E0B8
:10057000F901EE57FB4F9491F901E45CFB4F449174
:100580002A503C4FF9012491222309F435C09923C4
:1005900011F191509231F8F4E92FF0E08827EC52F4
:1005A000FD4F8F4F0C94372305030903E602FD022C
:1005B0000103EB020C03120316031C0320032403A4
:1005C0002A032E03EB02320338033C0380918000A0
:1005D0008F7780938000E22FF0E0EE0FFF1FE45250
:1005E000FC4FA591B4918FB7F894EC91611148C07C
:1005F00040954E234C938FBF0895809180008F7D4E
:10060000E8CF80918000877FE4CF84B58F7784BD69
:10061000E2CF84B58F7DFBCF8091B0008F77809340
:10062000B000D9CF8091B0008F7DF9CF809190003C
:100630008F7780939000CFCF809190008F7DF9CFFE
:1006400080919000877FF5CF8091A0008F77809375
:10065000A000C1CF8091A0008F7DF9CF8091A00034
:10066000877FF5CF809120018F7780932001B3CFD2
:10067000809120018F7DF9CF80912001877FF5CF78
:100680004E2BB8CF3FB7F8948091680790916907D7
:10069000A0916A07B0916B0726B5A89B05C02F3FB4
:1006A00019F00196A11DB11D3FBFBA2FA92F982F98
:1006B0008827BC01CD01620F711D811D911D42E093
:1006C000660F771F881F991F4A95D1F7089581E01B
:1006D00090E00895815E9B4F0895AF92BF92CF92B4
:1006E000DF92EF92FF920F931F93CF93DF936C01F2
:1006F0007B018B01040F151FEB015E01AE18BF08D3
:10070000C017D10759F06991D601ED91FC91019084
:10071000F081E02DC6011995892B79F7C501DF918C
:10072000CF911F910F91FF90EF90DF90CF90BF90EE
:10073000AF900895FC01538D448D252F30E0842F18
:1007400090E0821B930B541710F0CF9608950197F9
:100750000895FC01918D828D981761F0A28DAE0FE6
:10076000BF2FB11D5D968C91928D9F5F9F73928F6D
:1007700090E008958FEF9FEF0895FC01918D828D99
:10078000981731F0828DE80FF11D858D90E0089566
:100790008FEF9FEF0895FC01918D228D892F90E0BE
:1007A000805C9F4F821B91098F73992708958EE675
:1007B00098E00E94CB0321E0892B09F420E0822FEE
:1007C0000895FC01A48DA80FB92FB11DA35ABF4FE6
:1007D0002C91848D90E001968F739927848FA68940
:1007E000B7892C93A089B1898C91837080648C9394
:1007F000938D848D981306C00288F389E02D808143
:100800008F7D80830895EF92FF920F931F93CF9374
:10081000DF93EC0181E0888F9B8D8C8D98131AC03B
:10082000E889F989808185FF15C09FB7F894EE8922
:10083000FF896083E889F98980818370806480837F
:100840009FBF81E090E0DF91CF911F910F91FF90CA
:10085000EF900895F62E0B8D10E00F5F1F4F0F7372
:100860001127E02E8C8D8E110CC00FB607FCFACF2D
:10087000E889F989808185FFF5CFCE010E94E103E7
:10088000F1CFEB8DEC0FFD2FF11DE35AFF4FF082FE
:100890009FB7F8940B8FEA89FB8980818062CFCF64
:1008A000CF93DF93EC01888D8823B9F0AA89BB89A7
:1008B000E889F9898C9185FD03C0808186FD0DC092
:1008C0000FB607FCF7CF8C9185FFF2CF808185FFB3
:1008D000EDCFCE010E94E103E9CFDF91CF910895E2
:1008E00080E090E0892B29F00E94D70381110E94BB
:1008F000000080E090E0892B49F080E090E0892BB7
:1009000029F00E94000081110E94000080E090E028
:10091000892B49F080E090E0892B29F00E940000AB
:1009200081110E94000080E090E0892B49F080E076
:1009300090E0892B29F00E94000081110C940000A6
:1009400008950895FB011082118212821382FA0128
:1009500010821182128213820895089590E080E03F
:10096000089590E080E00895089508950895089509
:10097000DC01FB018085882329F17185628553851F
:10098000448535852685978580891896EC9118973A
:10099000E11116C07C9311966C93119712965C939B
:1009A000129713964C93139714963C93149715969D
:1009B0002C93159716969C93169717968C931797CA
:1009C000CD010895708161815281438134812581F7
:1009D00096818781DACF87E195E00895282F8AED07
:1009E00093E0A0E0BB2730E0220F331F820F931F5C
:1009F000A11DB11DABBFFC01879196910895CF93C6
:100A0000DF9300D01F92CDB7DEB7FB01408151814B
:100A100062817381FC012481211104C040835183D0
:100A2000628373830F900F900F900F90DF91CF919F
:100A30000895FC018481882351F085819681A781E6
:100A4000B085FB0180839183A283B3830895808165
:100A50009181A281B381F5CFFC0114820895FC013C
:100A600014820895CF93DF93FC01EB018881998173
:100A7000AA81BB8121E0248385839683A783B087E5
:100A800080839183A283B383DF91CF910895CF9325
:100A9000DF9300D01F92CDB7DEB7FB0140815181BB
:100AA00062817381FC012481211104C04083518340
:100AB000628373830F900F900F900F90DF91CF910F
:100AC0000895FC018481882351F085819681A78156
:100AD000B085FB0180839183A283B38308958081D5
:100AE0009181A281B381F5CFFC0114820895CF9347
:100AF000DF93FC01EB0188819981AA81BB8121E010
:100B0000248385839683A783B08780839183A28380
:100B1000B383DF91CF910895FC01DB0180858111C2
:100B20001DC07C9111966C91119712965C91129751
:100B300013964C91139714963C91149715962C91FB
:100B4000159716969C91169717968C9170836183D2
:100B50005283438334832583968387830895FC01DE
:100B6000DB0180858823F1F071856285538544859A
:100B700035852685978580897C9311966C9311978E
:100B800012965C93129713964C93139714963C937A
:100B9000149715962C93159716969C93169717965F
:100BA0008C930895708161815281438134812581C4
:100BB00096818781E1CFFC0110860895FC011086A3
:100BC0000895FC01DB017C9111966C9111971296AE
:100BD0005C91129713964C91139714963C9114972D
:100BE00015962C91159716969C91169717968C91A1
:100BF000A1E0A0877187628753874487358726875E
:100C00009787808B708361835283438334832583EA
:100C1000968387830895FC01DB01808581111DC0C7
:100C20007C9111966C91119712965C911297139684
:100C30004C91139714963C91149715962C911597F7
:100C400016969C91169717968C91708361835283A8
:100C5000438334832583968387830895FC01DB01D6
:100C600080858823F1F071856285538544853585BB
:100C70002685978580897C9311966C93119712969F
:100C80005C93129713964C93139714963C93149776
:100C900015962C93159716969C93169717968C93EA
:100CA00008957081618152814381348125819681CB
:100CB0008781E1CFFC01DB017C9111966C9111974A
:100CC00012965C91129713964C91139714963C913F
:100CD000149715962C91159716969C911697179622
:100CE0008C91A1E0A08771876287538744873587FD
:100CF00026879787808B70836183528343833483F5
:100D00002583968387830895FC01248121110AC0DD
:100D1000FB014081518162817381FC0140835183D9
:100D2000628373830895FC018481882351F0858157
:100D30009681A781B085FB0180839183A283B383D1
:100D4000089580819181A281B381F5CFFC01148245
:100D50000895CF93DF93FC01EB0188819981AA81EB
:100D6000BB8121E0248385839683A783B08780831A
:100D70009183A283B383DF91CF910895FC012481F5
:100D800021110AC0FB014081518162817381FC0104
:100D900040835183628373830895FC018481882397
:100DA00051F085819681A781B085FB018083918375
:100DB000A283B383089580819181A281B381F5CF0D
:100DC000CF93DF93FC01EB0188819981AA81BB81DC
:100DD00021E0248385839683A783B08780839183D2
:100DE000A283B383DF91CF910895FC012281211169
:100DF00006C0FB0120813181FC01318320830895ED
:100E0000FC018281882331F083819481FB019183ED
:100E10008083089580819181F9CFFC011282089529
:100E2000FC0112820895FC01DB018D919C9121E06F
:100E3000228394838383918380830895FC0122819C
:100E4000211106C0FB0120813181FC013183208307
:100E50000895FC018281882331F083819481FB0114
:100E600091838083089580819181F9CFFC01DB011A
:100E70008D919C9121E0228394838383918380834D
:100E80000895FC012181211104C0FB012081FC0196
:100E900020830895FC018181882321F08281FB0158
:100EA000808308958081FBCFFC0111820895FC01AD
:100EB00011820895FC01DB018C9191E09183828382
:100EC00080830895FC012181211104C0FB01208150
:100ED000FC0120830895FC018181882321F0828117
:100EE000FB01808308958081FBCFFC01118208956E
:100EF000FC01DB018C9191E09183828380830895D2
:100F0000FC018181882311F08281089580810895F8
:100F1000EF92FF921F93CF93DF93EC01CB017A0105
:100F20000E948007182FC7010E948007812B8883A9
:100F300019821A82CE01DF91CF911F91FF90EF901D
:100F40000895EF92FF921F93CF93DF93EC01CB01B3
:100F50007A010E948007182FC7010E948007812311
:100F6000888319821A82CE01DF91CF911F91FF9061
:100F7000EF900895CF93DF93EC01CB010E9480079F
:100F8000888319821A82DF91CF910895CF93DF93DE
:100F9000EC01CB010E9480079981911101C08883E7
:100FA000CE01DF91CF910895AF92BF92CF92DF92A1
:100FB000EF92FF921F93CF93DF9300D0CDB7DEB7B0
:100FC0007C016C0188E0C80ED11CC6010E9480071C
:100FD000182F570182E0A80EB11CC5010E9480079E
:100FE00091E01927182319831A821B82BE016F5FB3
:100FF0007F4FC70105960E94C607B501C6010E9432
:10100000C6070F900F900F90DF91CF911F91FF9027
:10101000EF90DF90CF90BF90AF900895BF92CF92A6
:10102000DF92EF92FF920F931F93CF93DF9300D045
:10103000CDB7DEB78C01BC016E5F7F4F47960E9433
:10104000C607C80145960E94D407F80181A1811105
:1010500002C081E080A3C80105960E948007F801C4
:10106000D288B284882341F0D11034C0118A108A0A
:10107000F8012089318931C0DD2021F1E388F4882D
:10108000F801BB2011F183859485CC24C394E81624
:10109000F9060CF0C12CC8014A960E9480078C21E9
:1010A00089831A821B82CE0101960E9480078823C1
:1010B00079F0D1100DC0FFEFEF1AFF0AF801F18AA5
:1010C000E08AD6CFE088F188DBCF80859185DDCFBF
:1010D000DD2071F2F80123893489F801BB20D1F0B9
:1010E00043855485F8018685811107C081E0241766
:1010F00035070CF480E0F80185870F900F900F9072
:10110000DF91CF911F910F91FF90EF90DF90CF90E3
:10111000BF90089540855185E5CFCF93DF93EC01D3
:10112000CB010E94800791E08927888319821A8267
:10113000CE01DF91CF9108952F923F924F925F920F
:101140006F927F928F929F92AF92BF92CF92DF92D7
:10115000EF92FF920F931F93CF93DF93CDB7DEB73C
:10116000A7970FB6F894DEBF0FBECDBF4C0180919C
:1011700048078983809149078A8380914A078B8336
:1011800080914B078C8380914C078D8380914D0714
:101190008E8380914E078F8380914F0788871986B1
:1011A0001A861B861C861D861E861F86188A198A2B
:1011B000340110E3610E711CBE016F5F7F4FC301EC
:1011C0000E94B804C40102969C8F8B8FD4019D9617
:1011D000BEA3ADA3BD01CE0101960E94BA07BE0118
:1011E0006F5F7F4FCE0142960E948D08F40183A568
:1011F000882381F154A4CE0142960E94800791E099
:10120000511090E098239D8B1E8A1F8A4B8D5C8D18
:10121000BE016B5E7F4FCE0148960E94A107CE01B2
:1012200048960E9480078823B9F0F40183A58111B4
:1012300002C081E082A7D40157968C915797811103
:1012400002C056961C92B301C4018F5B9F4F0E944F
:10125000B80441C052A4CFCF6B8D7C8DCE010196D6
:101260000E94BA07BE016F5F7F4FCE0142960E9477
:101270008D08CE0142960E948007F401F3A5FCA3DD
:10128000882309F447C0D40191968C9191978111DC
:1012900017C059961C9259975A961C925A975B966A
:1012A0001C925B975C961C925C975D961C925D9776
:1012B0005E961C925E975F961C925F9790961C922A
:1012C000F4018789811101C0168AFCA1F11103C0C4
:1012D000D4019A961C926B8D7C8D8DA19EA10E944B
:1012E000C607A7960FB6F894DEBF0FBECDBFDF913D
:1012F000CF911F910F91FF90EF90DF90CF90BF9013
:10130000AF909F908F907F906F905F904F903F90A5
:101310002F900895BCA1BB2309F463C0F40184A5F8
:101320008130C9F6F401EF5BFF4F8085882309F413
:101330005CC02184B285BD8FA385AE8FB485BF8F7D
:10134000A585A8A3B685B9A3A785AAA3B089BBA381
:10135000F4018585882309F458C02685378540899E
:1013600051896289738984899589A22CBD8CCE8C20
:10137000DF8CE8A0F9A00AA11BA10E94E323D401FD
:10138000D896EC91D897EE2309F448C0D9963C90B2
:10139000F401F9964180528063807480B581A68102
:1013A00017811FA3A32CB42CC52CD62CE72CFB2E05
:1013B0000A2F0E94F52311F00CF043C0ACA1A1113B
:1013C00004C082E0D4019A968C93F401878981113C
:1013D00002C081E0868BB4016B5F7F4FC4014996E8
:1013E00036CFD4019A968C919BCF2080A181AD8F6E
:1013F000B281BE8FA381AF8FB481B8A3A581A9A309
:10140000B681BAA3A781ABA3A3CF2581368147813B
:1014100050856185728583859485A7CFF40130A8B6
:1014200041A852A863A874A8B5A9A6A9F7A9FFA3C3
:10143000A32CB42CC52CD62CE72CFB2E0A2F1F2F47
:10144000B8CF232D342D452D562D672D7B2F8A2F78
:101450009FA1A22CBD8CCE8CDF8CE8A0F9A00AA1A4
:101460001BA10E94EC2329833A834B835C836D8309
:101470007E838F83988719861A861B861C861D8615
:101480001E861F86188A198ABE016F5F7F4FC401AE
:1014900049960E94B8041FCF2F923F924F925F92BD
:1014A0006F927F928F929F92AF92BF92CF92DF9274
:1014B000EF92FF920F931F93CF93DF93CDB7DEB7D9
:1014C00065970FB6F894DEBF0FBECDBF8C016C01DF
:1014D00025E0C20ED11C5C0138E0A30EB11C7C01DA
:1014E0008DE4E80EF11CB701CE0101960E94BA0707
:1014F000BE016F5F7F4FCE0104960E948D08A5014B
:10150000BE016C5F7F4FCE0107960E94A107A60126
:10151000BE01695F7F4FCE010A960E94A107A80114
:101520004E5F5F4FBE01665F7F4FCE010D960E94FA
:10153000A107CE010D960E948007882331F0F801A3
:1015400087AD811102C081E086AFB501CE010A9658
:101550000E94BA07BE01665F7F4FCE010D960E94C2
:101560008D08B601CE0101960E94BA07BE016F5FD9
:101570007F4FCE0104960E948D08AE014C5F5F4FF5
:10158000B701CE0107960E948807AE01435F5F4F07
:10159000BE01695F7F4FCE0140960E948807CE0151
:1015A00040960E948007882329F0F80187AD8111B9
:1015B00001C016AE2801FEE34F0E511CB201C80156
:1015C0008F960E94C607B701C801CB960E94C60736
:1015D00058012BE0A20EB11CB501C80182529C4FEC
:1015E0000E94C607C80184529C4F0E94D407F8018C
:1015F000E951FC4F8181811102C081E08083680143
:101600003AE4C30ED11CB601CE0107960E94BA0778
:10161000BE01695F7F4FCE010A960E948D08B80116
:101620006F547E4FCE0101960E94BA07BE016F5FD4
:101630007F4FCE0104960E948D08AE01465F5F4F3A
:10164000BE016C5F7F4FCE010D960E94A107A801DD
:10165000425F5F4FBE01635F7F4FCE0140960E94A5
:10166000A107A8014F515C4FBE01605F7F4FCE01C3
:1016700043960E94A107CE0143960E9480078823CB
:1016800041F0F801EF5BFF4F8181811102C081E0E1
:101690008083B501C80184519C4F0E94C607C801D0
:1016A00086519C4F0E94D407F801EB50FC4F81817A
:1016B000811102C081E08083B601CE0107960E94AD
:1016C000BA07BE01695F7F4FCE010A960E948D085E
:1016D000B80169527E4FCE0101960E94BA07BE0141
:1016E0006F5F7F4FCE0104960E948D08AE01465F6A
:1016F0005F4FBE016C5F7F4FCE010D960E94A10728
:10170000A8014F5E5F4FBE01635F7F4FCE014096E1
:101710000E94A107A80141515C4FBE01605F7F4F4D
:10172000CE0143960E94A107CE0143960E948007F6
:10173000882341F0F801EC5BFF4F8181811102C0E9
:1017400081E08083B501C80186509C4F0E94C60786
:10175000C80188509C4F0E94D407F801ED5FFB4FF1
:101760008181811102C081E08083B601CE0107969C
:101770000E94BA07BE01695F7F4FCE010A960E94A0
:101780008D08B80163507E4FCE0101960E94BA07C2
:10179000BE016F5F7F4FCE0104960E948D08AE019F
:1017A000465F5F4FBE016C5F7F4FCE010D960E947A
:1017B000A107A8014C5E5F4FBE01635F7F4FCE0162
:1017C00040960E94A107A80143505C4FBE01605F94
:1017D0007F4FCE0143960E94A107CE0143960E94FF
:1017E0008007F801E95BFF4F5F01882329F08181C1
:1017F000811102C081E080833801F4E46F0E711C16
:10180000480121E4820E911CA301B401CE0101968E
:101810000E948807A501BE016F5F7F4FCE0104962D
:101820000E948807CE0104960E948007882341F019
:10183000F801E65BFF4F8181811102C081E0808366
:10184000B701CE0101960E94BA07BE016F5F7F4FBC
:10185000CE0104960E948D08A601BE016C5F7F4FE9
:10186000CE0107960E94A107A201BE01695F7F4FCA
:10187000CE010A960E94A107BE01665F7F4FC80194
:1018800083960E94C607180137E1230E311CA1017F
:10189000B401CE0101960E94A107BE016F5F7F4F88
:1018A000C8018E5A9F4F0E94C607F801EB5AFF4F9E
:1018B000808581110BC010828FE2818388E682834C
:1018C00089E583831482158216821782C801805BA2
:1018D0009F4F0E949C08F801EE55FF4F81818111B6
:1018E00002C081E08083280186E6480E511CB201C7
:1018F000CE0101960E94BA07BE016F5F7F4FCE01F5
:1019000004960E948D08A401BE016C5F7F4FCE013A
:1019100007960E94A107A101BE01695F7F4FCE011A
:101920000A960E94A107BE01665F7F4FC801869696
:101930000E94C607B201C80183599D4F0E94C60785
:101940004801E0E28E0E911CB401C80180599D4F00
:101950000E94C607F801ED58FD4F8281811104C035
:1019600082E390E091838083C80185599D4F0E9456
:101970000E08F801E257FD4F8181811102C081E01C
:101980008083B80168587D4FC801C2960E94C6077F
:10199000C2010E948007882371F0F801EF5BFF4FBE
:1019A0008181811101C01082F801E65BFF4F8181C6
:1019B000811101C010821801FAE12F0E311CA10122
:1019C000B301CE0101960E94A107BE016F5F7F4F58
:1019D000C80189559F4F0E94C607F801E655FF4F81
:1019E000808581110BC010828FE2818388E682831B
:1019F00089E583831482158216821782C8018B556C
:101A00009F4F0E949C08F801E950FF4F818181118E
:101A100002C081E0808328012BEB420E511CB201F1
:101A2000CE0101960E94BA07BE016F5F7F4FCE01C3
:101A300004960E948D08A301BE016C5F7F4FCE010A
:101A400007960E94A107A101BE01695F7F4FCE01E9
:101A50000A960E94A107BE01665F7F4FC801899662
:101A60000E94C607B201C80188519D4F0E94C60757
:101A7000B401C80185519D4F0E94C607F801E2518B
:101A8000FD4F8281811104C082E390E091838083C5
:101A9000C8018A519D4F0E940E08F801E75FFC4F74
:101AA0008181811102C081E08083B8016D507D4F3A
:101AB000C801C5960E94C607C2010E9480078823FC
:101AC00071F0F801EC5BFF4F8181811101C0108240
:101AD000F801E65BFF4F8181811101C0108228016E
:101AE0003DE1430E511CA201B501CE0101960E94B9
:101AF000A107BE016F5F7F4FC80184509F4F0E94B6
:101B0000C607F801E150FF4F808581110BC010829C
:101B10008FE2818388E6828389E58383148215823C
:101B200016821782C80186509F4F0E949C08F801B8
:101B3000E45BFE4F8181811102C081E08083380126
:101B400080EF681A8EEF780AB301CE0101960E94E9
:101B5000BA07BE016F5F7F4FCE0104960E948D08C9
:101B6000A501BE016C5F7F4FCE0107960E94A107C1
:101B7000A201BE01695F7F4FCE010A960E94A107B4
:101B8000BE01665F7F4FC8018C960E94C607B301F5
:101B9000C8018D599C4F0E94C607B401C8018A59DB
:101BA0009C4F0E94C607F801E759FC4F82818111C2
:101BB00004C082E390E091838083C8018F599C4FD9
:101BC0000E940E08F801EC57FC4F8181811102C080
:101BD00081E08083B80162597C4FC801C8960E9499
:101BE000C607C3010E948007882371F0F801E95BF2
:101BF000FF4F8181811101C01082F801E65BFF4F28
:101C00008181811101C01082B601C8018F5A9E4F97
:101C10000E94C607F801EC5AFE4F808581110CC066
:101C2000108280EB81838EE8828380EF83838BE157
:101C30008483158216821782C801815B9E4F0E94A1
:101C40009C08F801EF55FE4F8181811102C081E0AF
:101C50008083C8018B599E4F0E948007882331F0F2
:101C6000F7018181811102C081E08083C4010E945B
:101C70008007882361F0F7018181811101C0108202
:101C8000F801E65BFF4F8181811101C010826596EA
:101C90000FB6F894DEBF0FBECDBFDF91CF911F917D
:101CA0000F91FF90EF90DF90CF90BF90AF909F90FB
:101CB0008F907F906F905F904F903F902F900895FE
:101CC000CF93DF93EB010E9480078883DF91CF9150
:101CD00008950F931F93882339F060E070E080E04F
:101CE00090E01F910F9108950AED13E020E0332753
:101CF0002BBFF8010791169160177107B0F488EDBA
:101D000093E0A0E0BB27ABBFFC0187919691660FE3
:101D1000771F660F771F680F791FFB01259134919C
:101D2000FB0132968491B901DBCF60E070E0D8CF3F
:101D30000E94690E672B59F0853148F499E0899F1C
:101D4000F0011124E25FFB4F808590E0089590E060
:101D500080E008950F931F93CF938A010E94690E2C
:101D6000E82FCB010097B1F0E531A0F429E0E29F24
:101D7000F0011124E25FFB4FC085CC2359F00480B1
:101D8000F581E02DB80119958C2F90E0CF911F912E
:101D90000F91089590E080E0F9CF9E5FFC011082E2
:101DA0000895EF92FF920F931F93CF93DF93CDB7D8
:101DB000DEB7CC5FD2400FB6F894DEBF0FBECDBF0A
:101DC000FB0130813F3708F03EE7FB01BE016F5F4A
:101DD0007D4FDB0120E0231751F0428151814527DF
:101DE000542745274D935D932F5F3296F4CF30E013
:101DF000DE01119650E040E07D014217530748F4A0
:101E0000FB0101911191BF010D931D934F5F5F4F36
:101E1000F4CFD901AA0FBB1FAE0DBF1D1D921C929E
:101E2000DC01BE5F41E04C93C150DE4F3983288313
:101E3000CF5FD140119680E092E0F70101900D92C2
:101E40000197E1F7C450DD4F0FB6F894DEBF0FBE27
:101E5000CDBFDF91CF911F910F91FF90EF9008952B
:101E6000EF92FF920F931F93CF93DF93CDB7DEB71F
:101E7000CC5FD2400FB6F894DEBF0FBECDBFFB01E2
:101E800030813F3708F03EE7FB01BE016F5F7D4FB9
:101E9000DB0120E0231751F042815181452754276F
:101EA00045274D935D932F5F3296F4CF30E0DE01EE
:101EB000119650E040E07D014217530748F4FB01C2
:101EC00001911191BF010D931D934F5F5F4FF4CFAF
:101ED000A901440F551F4E0D5F1DFA01118210829A
:101EE000C150DE4F39832883CF5FD14020E032E0FC
:101EF000F701DC0101900D9221503040D9F7C45018
:101F0000DD4F0FB6F894DEBF0FBECDBFDF91CF918E
:101F10001F910F91FF90EF9008958F5F9E4FFC01EE
:101F200010820895FC012181211108C021E0FB01EC
:101F30003081311101C020E0FC0120830895FC01B3
:101F400081E0DB019C91911101C080E091E09183DF
:101F500082838083089520916C07209530E0F901F9
:101F6000E25FFC4F90819095225F3D4FD9018C91AB
:101F7000409154055091550542505109ECE6F7E067
:101F800031969F012C5637402417350770F4208175
:101F90009227292F30E0D901A25FBC4F9C9198274E
:101FA000225F3D4FD9018C91EBCF089523E030E0C3
:101FB0003093550520935405ECE6F7E090913507F2
:101FC000908380588183628308950F931F93582FC5
:101FD000577001E010E020E030E004C0000F111F56
:101FE000221F331F5A95D2F723E0969587952A959D
:101FF000E1F79927E0913F07F0914007662321F030
:10200000E0914507F0914607E80FF91F80814423CE
:1020100029F0082B00831F910F9108950095082344
:10202000F9CF2F923F924F925F926F927F928F9251
:102030009F92AF92BF92CF92DF92EF92FF920F9357
:102040001F93CF93DF93CDB7DEB7C655D1090FB637
:10205000F894DEBF0FBECDBF10E000E0F801EE0F38
:10206000FF1FEB53F94F0190F081E02D309749F0BD
:1020700041E08081811101C040E060E0C8010E9420
:10208000E50F0F5F1F4F0833110541F7E09036074A
:10209000F090370725E836E02D963FAF2EAF2D970D
:1020A0008701005C1F4FF701D9018D919D919D0122
:1020B000009729F0DC018D919C9191838083329669
:1020C0000E171F0789F7D12CC12CF601EE0FFF1F49
:1020D000EB5EF94F0190F081E02D309749F041E03F
:1020E0008081811101C040E061E0C6010E94E50FDE
:1020F000BFEFCB1ADB0AE8E3CE16D10431F745ED8A
:1021000055E0E0914207F09143079F01205C3F4F6B
:10211000DA018D919D91AD01009729F0DC018D913F
:102120009C91918380833296E217F30789F7EDEA59
:10213000F5E02F96FFAFEEAF2F97F80128E6E20EFD
:10214000F11C2DEA35E0D9018D919D919D010097FB
:1021500029F0DC018D919C91918380833296EE165B
:10216000FF0689F7E5E8F5E06196FFAFEEAF61970E
:10217000E0913907F0913A079F01205B3F4F05E856
:1021800015E0D8018D919D918D01009749F0DC01FA
:102190004D915D916D917C914083518362837383F6
:1021A0003496E217F30769F7EDE5F5E02B96FFAFFC
:1021B000EEAF2B97E0913C07F0913D079F01205631
:1021C0003F4F8DE595E0DC01CD90DD90CD01C11450
:1021D000D104F1F0D601EC901196FC901197129673
:1021E0000C91129713961C91139714967C91149747
:1021F00015966C91159716965C91169717964C91BB
:10220000E082F1820283138374836583568347835C
:1022100038962E173F07B9F680915B0590915C05C3
:10222000DC01ED91FC910084F185E02D19951816E3
:102230001906B4F580916C0890916D088F3F910557
:1022400009F070F580915B0590915C05DC01ED91E2
:10225000FC910284F385E02D199520916C08309152
:102260006D08A9014F5F5F4F50936D0840936C0854
:102270002459384FF90180832FB7F894809164076F
:1022800090916507A0916607B09167072FBF809373
:10229000500590935105A0935205B0935305BCCFC0
:1022A00040916C0850916D084115510509F466C0C4
:1022B00090916C0780913507981719F00E94980249
:1022C000EFCF4230510508F461C180916D0764E0A1
:1022D000862E912CA12CB12C813409F168F4813027
:1022E00030F08730B8F08F50823008F419C188245C
:1022F0008A94982C540113C0E9E08E2E912CA12CC5
:10230000B12C833461F008F42FC1843409F416C170
:10231000853469F7F8E08F2E912CA12CB12C61E067
:1023200086169606A104B10448F681149104A1040E
:10233000B10429F084014815590508F02BC12FB7C5
:10234000F8948091640790916507A0916607B09119
:1023500067072FBF4091500550915105609152057C
:1023600070915305841B950BA60BB70B0997A1051C
:10237000B10520F010926D0810926C0840913F0753
:102380005091400730E020E0F901EE0FFF1FEB53C2
:10239000F94F0190F081E02D309799F0D90183E059
:1023A000B695A7958A95E1F7A40FB51F8C9190E09B
:1023B000622F677002C0959587956A95E2F78170E4
:1023C00080832F5F3F4F28333105F1F68091360728
:1023D00090913707BC01605C7F4FDC012D96EEAD1C
:1023E000FFAD2D97219131912D96FFAFEEAF2D9737
:1023F0002115310531F04D915C911197F90151830F
:10240000408312966A177B0749F7FB0188599F4F53
:102410002F96AEADBFAD2F974D915D912F96BFAF6B
:10242000AEAF2F974115510529F020813181DA0196
:102430002D933C9332968E179F0751F7E091390701
:10244000F0913A07CF01805B9F4F6196AEADBFAD73
:1024500061972D913D916196BFAFAEAF6197211508
:10246000310551F04081518162817381D9014D93D1
:102470005D936D937C93139734968E179F0729F77E
:10248000E0913C07F0913D07CF0180569F4F2B967E
:10249000AEADBFAD2B97ED90FD902B96BFAFAEAF1D
:1024A0002B97E114F104F1F00081118172816381B5
:1024B0005481458136812781D7010C9311961C9355
:1024C000119712967C93129713966C931397149608
:1024D0005C93149715964C93159716963C93169704
:1024E00017962C9338968E179F0789F6CA5ADF4F96
:1024F0000FB6F894DEBF0FBECDBFDF91CF911F9115
:102500000F91FF90EF90DF90CF90BF90AF909F9092
:102510008F907F906F905F904F903F902F90089595
:102520004730510598F180907207912CB12CA12C65
:10253000F9E08F0E911CA11CB11CF1CE4430510565
:1025400028F120916E0730916F0732272327322719
:10255000A3E0B0E00E943F234B015C0126E0820E25
:10256000911CA11CB11CDBCE4830510578F0809045
:10257000720790907307982489249824B12CA12C79
:102580003AE0830E911CA11CB11CC9CE812C912C68
:102590005401C5CED0906D078FEB8D0D853000F1C5
:1025A00090925505809254050E94AB0FB501A4018D
:1025B00042505109610971094459584FDA012C916F
:1025C000B1E08B1A9108A108B108F401E459F84F61
:1025D00030812327322723272817390709F06ECEA9
:1025E00002501109109355050093540560906E0731
:1025F00070906F0776246724762480916E0700918F
:10260000700710917107102701271027E0906F07BE
:10261000F0907007FE24EF24FE24C0907107EFE0D5
:10262000DE1609F4A9C5ED15D8F1F3E0DF1609F4BB
:1026300092C1FD1568F021E0D21609F426C432E0FB
:10264000D31609F4ACC461E070E08D2D90E025C094
:1026500045E0D41609F471C5D41608F429C556E02E
:10266000D512F1CF2091380780913B0790E0880F79
:10267000991FE22FF0E08E0F9F1F40913E07B4E0BC
:102680004B9FA0011124480F591F6416750608F4CA
:1026900055C062E070E086E090E00E94D60F5BC01B
:1026A00062E4D61609F408C76D15E8F070E1D71694
:1026B00009F474C281E4D812C6CFD0926D0781E0CC
:1026C00080936E078EE780936F0780E00E94EE0490
:1026D000909370078093710786E090E09093550582
:1026E0008093540538C094E4D91609F46CC6D91601
:1026F00008F4F7C5A5E4DA12A6CFD0926D078EE7ED
:1027000080936E0781E2EFE1F5E09E012F5F3F4F7E
:10271000D90101900D928A95E1F7AFE6B7E0A901E2
:10272000CA01821B930BFA016191AF01FD01EC56C6
:10273000F740662309F408C76D93F2CF6E167F0643
:10274000D8F4660C771CE0913607F0913707E60D58
:10275000F71D1183008380915405909155050296D1
:102760008130914008F466C580916D0764E070E0A7
:1027700090E00E94D60F5EC568167906F0F5A801B4
:1027800070E060E08091390790913A0760FC1CC0CE
:1027900093012E1B3F0BF901EE0FFF1FEC7FF3702F
:1027A000E80FF91F80819181A281B381AA27BB27FD
:1027B000BA0155274427842B952BA62BB72B808352
:1027C0009183A283B383C7CFE095F095E60DF71D03
:1027D000EE0FFF1FEC7FF370E80FF91F00811181EE
:1027E0002281338100271127042B152B262B372B11
:1027F0000083118322833383AECF93012370332769
:102800004801B12CA12CC12CD12C7601E0913C07C0
:10281000F0913D072115310549F5681A790A660CD2
:10282000771C38EF632237E07322E60DF71D5080E6
:10283000618072801381B481A581940140E050E0F1
:1028400060E070E080E090E000E30E94AD23252985
:102850002083632A6182742A7282152B1383B62B1C
:10286000B483A72BA5838683978375CF2130310549
:1028700041F54FEF641A740A681A790A660C771CDE
:1028800058EF652257E07522E60DF71D50806180F4
:1028900072801381B681A7819401A501B601C70199
:1028A00000E20E94AD23522A5082632A6182742A78
:1028B0007282152B1383648375838B2B86839A2BEB
:1028C000D3CF2230310529F562E0660E711C681AFB
:1028D000790A660C771C78EF672277E07722E60D9D
:1028E000F71D5080618074801581B681A7819401A5
:1028F000A501B601C70100E10E94AD23522A508212
:10290000632A618242835383762A7482172B15834C
:10291000D4CFA3E06A0E711C681A790A660C771C82
:10292000B8EF6B22B7E07B22E60DF71D52814381A1
:102930003481258196818781808291825A295283B0
:102940004B2943833C2934832D2925839E29968353
:102950008F29878300CFC801019763E070E08D372E
:102960009105C8F44301800E911E20913807E09133
:102970003B07F0E0EE0FFF1FE20FF11D80913E07D5
:1029800034E0839FC00111248E0F9F1F8816990683
:1029900028F062E070E083E090E07FCE000F111F2E
:1029A0000D5F1F4F10935505009354053CE6E32E31
:1029B00037E0F32ED7011196CD018C569740801742
:1029C000910710F41C92F7CF83E080936D070350BA
:1029D00000936E07C0903C07D0903D07A090390748
:1029E000B0903A07A0913607B0913707BEAFADAFB0
:1029F000A22FB0E02796BFAFAEAF279783E090E05D
:102A00001C012E1A3F0A2D014094509486149704FD
:102A100009F4A1CE2796AEADBFAD27976A167B0607
:102A200060F49301220F331FADADBEAD2A0F3B1FE3
:102A3000D9018C9111963C911CC06E167F0680F5D1
:102A400060FC24C0C3012796AEADBFAD27978A1B9B
:102A50009B0B880F991F8C7F93708A0D9B1DDC0147
:102A60004D915D916D917C91AB0166277727842F05
:102A7000352FD70113963C93139714968C93B2E09D
:102A8000EB0EF11C2FEF621A720AC0CF9201260DD5
:102A9000371D220F331F2C7F33702A0D3B1DC8CFEB
:102AA0008301037011270115110521F583010E1B08
:102AB0001F0B000F111F087F17700C0D1D1DD80173
:102AC0002C9111963C91119712964C911297139656
:102AD0005C91139714966C91149715967C911597A9
:102AE00016968C91169717969C9100E30E94C82326
:102AF000822FBFCF0130110511F50E1B1F0B060DE4
:102B0000171D000F111F087F17700C0D1D1DD80118
:102B10002C9111963C91119712964C911297139605
:102B20005C91139714966C91149715967C91159758
:102B300016968C91169717969C9100E2D7CF02308B
:102B4000110511F50E1B1F0B060D171D000F111F90
:102B5000087F17700C0D1D1DD8012C9111963C910A
:102B6000119712964C91129713965C9113971496A5
:102B70006C91149715967C91159716968C911697D3
:102B800017969C9100E1B2CF9101260D371D220FBF
:102B9000331F287F37702C0D3D1D4ACFC801019788
:102BA0008B37910540F420917207C801880F991F57
:102BB0002817190629F063E070E080E190E06DCD00
:102BC000D301A00FB11F2796BFAFAEAF27972090BC
:102BD0003807A0913B07B0E0AA0FBB1F312CA20D14
:102BE000B31D80913E07E4E08E9FC00111248A0F3F
:102BF0009B1F2796EEADFFAD2797E817F90718F052
:102C000062E070E0DACF86E090E090935505809323
:102C10005405D0926D0770926E0760926F07109204
:102C2000700700937107E0903C07F0903D07E0913A
:102C30003907F0913A072996FFAFEEAF2997E09157
:102C40003607F09137076396FFAFEEAF63972CE638
:102C5000422E27E0522E83E090E0FC01EA1BFB0BA2
:102C60006596FFAFEEAF6597F101E095F095679639
:102C7000FFAFEEAF67972796EEADFFAD27976E16C5
:102C80007F0609F4D7C2F20147818085142F082FEF
:102C90006214730490F4F301EE0FFF1F63962EADE0
:102CA0003FAD6397E20FF31F118300835FEF651A57
:102CB000750A62E0460E511CDECF6A167B06D8F517
:102CC000A80170E060E060FC1FC0F301E219F309A5
:102CD000EE0FFF1FEC7FF37029968EAD9FAD299705
:102CE000E80FF91F008111812281338122273327C8
:102CF000BA0155274427402B512B622B732B40835D
:102D0000518362837383D2CF6796EEADFFAD679731
:102D1000E60DF71DEE0FFF1FEC7FF37029962EAD29
:102D20003FAD2997E20FF31F00811181228133818A
:102D300000271127E0CFF301E370FF27980150E04F
:102D400040E060E070E0CB012DAF3EAF4FAF219689
:102D50005FAF219722966FAF229723967FAF23977D
:102D600024968FAF249725969FAF2597309739F5F6
:102D7000F301EA1BFB0BEE0FFF1FE87FF770EE0D70
:102D8000FF1D9080A180B280C380D480158140E077
:102D900050E060E070E080E090E000E30E94AD234E
:102DA000292920833A2931834B2942835C29538383
:102DB000D62AD482172B15838683978377CFE13069
:102DC000F10549F5EA1BFB0BE60DF71DEE0FFF1FA2
:102DD000E87FF770EE0DFF1D9080A180B280C38068
:102DE000D68017812DAD3EAD40E050E060E070E050
:102DF00080E090E000E20E94AD23292920833A2957
:102E000031834B294283C52AC382648375838D290C
:102E10008683912BD2CFE230F10531F5EA1BFB0B13
:102E2000E60DF71DEE0FFF1FE87FF770EE0DFF1D9B
:102E30009080A180B480C580D68017812DAD3EAD35
:102E400040E050E060E070E080E090E000E10E944F
:102E5000AD23292920833A29318342835383B62A1B
:102E6000B482C72AC582D3CF6596EEADFFAD659714
:102E7000E60DF71DEE0FFF1FE87FF770EE0DFF1D4B
:102E80003DAD30834EAD418311CFC8010197803DE8
:102E9000974028F063E070E081E090E0FECB209165
:102EA0004107C301800F911F62E070E028171906E7
:102EB00098F3C80123E0969587952A95E1F7980144
:102EC00027703327232B91F4039690935505809315
:102ED00054058091540590915505ECE6F7E081305A
:102EE000A1E09A0728F064E070E0D6CF0496EDCF19
:102EF00031969F012C5637402817390710F410825D
:102F0000F7CF91E090936D07835080936E07A09068
:102F10003F07B090400770E060E020E0C12CD12C6A
:102F20007601C39416012701022E04C0220C331C23
:102F3000441C551C0A94D2F7FB0143E0F695E79533
:102F40004A95E1F7E159F84F3081A301A3E0569586
:102F50004795AA95E1F74F7155274A0D5B1DDA0198
:102F60004C9150E0B62DB77002C055954795BA9573
:102F7000E2F7822D40FF0FC0832B80832F5F283024
:102F800009F420E0EFEF6E1A7E0A6F5F7F4F06179D
:102F9000170741F6E0CB809538233083EFCFC80187
:102FA000019763E070E0803D974030F5209147073E
:102FB000C301800F911F62E070E028171906E0F04E
:102FC000C80133E0969587953A95E1F79801277007
:102FD0003327232BA1F40396909355058093540532
:102FE0008091540590915505ECE6F7E0813021E0A1
:102FF000920738F064E070E082E090E04ECB0496F7
:10300000EBCF31969F012C5637402817390710F423
:103010001082F7CF92E090936D07835080936E07F4
:10302000609145077091460750E040E0B12CC12CFB
:10303000D12C7601C394160127010B2C04C0220C5D
:10304000331C441C551C0A94D2F7FA0183E0F69510
:10305000E7958A95E1F7E159F84FA080930193E055
:10306000369527959A95E1F7260F372F311DD9010F
:103070002C9130E0B62DB77002C035952795BA95E2
:10308000E2F7822D20FF10C08A298083B394E8E004
:10309000BE1201C0B12CFFEF6F1A7F0A4F5F5F4F66
:1030A0000417150741F657CB8095A822A082EECFD2
:1030B000C801019763E070E08D37910550F42091CD
:1030C0004407C301800F911F2817190628F462E0F6
:1030D00070E084E090E0E1CAC801880F991F039670
:1030E0009093550580935405ECE6F7E0DF011196C7
:1030F0009D012C5637402817390710F41C92F7CF42
:1031000094E090936D07835080936E07660C771C54
:10311000A0914207B0914307A60DB71D01501109B8
:1031200032960F3F100709F416CB8C9111969C91A3
:103130001197129691838283F1CF01153FEF130708
:1031400029F063E070E00115110549F48091410711
:103150008150990B8615970528F462E070E085E0B0
:1031600090E09BCA41E001151F4F09F040E060E08C
:10317000C3010E94E50FEFCA9801E3E03695279559
:10318000EA95E1F7822FA80147705527452B11F0EA
:1031900081E0820F980121503109203B374020F413
:1031A00090917207981729F063E070E08FE090E04B
:1031B00074CA20914107C301800F911F2817190677
:1031C00018F462E070E0F2CF86E090E0909355054D
:1031D000809354058FE080936D0770926E07609224
:1031E0006F071093700700937107F12CE12CD12C1D
:1031F000F70173E0F695E7957A95E1F7E459F84F12
:10320000478150E00D2C02C0559547950A94E2F78E
:10321000417060E0C3018E0D9F1D0E94E50FD394A5
:1032200078E0D71201C0D12C8FEFE81AF80A0E15FA
:103230001F05F1F60091540510915505780122E023
:10324000E20EF11CF0925505E09254050E94AB0F7E
:10325000F801E459F84F9083818380915A0587FDE6
:1032600011C061E00E94B602809156059091570509
:103270008230910538F0880F991F880F991F0597A4
:103280000197F1F780915B0590915C05DC01ED9170
:10329000FC910280F381E02DA7016CE677E019959F
:1032A00080915B0590915C05DC01ED91FC910680BD
:1032B000F781E02D19958091560590915705823040
:1032C000910538F0880F991F880F991F059701976E
:1032D000F1F780915A0587FD4DC860E00E94B60263
:1032E00049C8811165C0C0907107D09072070E94D3
:1032F000EE04009709F45CC0E816F90608F058C01F
:10330000DC24CD24DC24C816D90608F051C0CE1424
:10331000DF0408F44DC0570167E7862E67E0962E5C
:1033200010E000E0B50180E00E94980E9C01200FA3
:10333000311F255F3F4F2130314098F4892B59F0E0
:10334000A401B50180E00E94AA0E009721F0880E2A
:10335000991E080F191FC50101967501C816D906D7
:1033600028F5C8010B96909355058093540583E486
:1033700080936D078EE780936E07F0926F07E0925F
:103380007007809152079091530720915407309114
:1033900055073093710720937207909373078093BA
:1033A00074071093750700937607D5C95C01BACFEF
:1033B00083E090E0909355058093540583E48093D7
:1033C0006D0781E876C0B5E16B16710408F068C03E
:1033D000C301880F991F860D971DA0E7B7E08E01E6
:1033E0000F5F1F4FF8019F01201B310B2817390772
:1033F00018F42D912193F7CFB12CA12C512CD12C65
:10340000C12C4BE0E42EF12C6A147B0431F1F8015D
:10341000408081808281982C882EB401842D0E9466
:10342000980E009791F08E0D9F1D81309140A8F469
:10343000A7014459584FB401842D0E94AA0E009749
:1034400021F0E80EF91EC80ED91E0D5F1F4F5A2C31
:1034500095012F5F3F4F5901D7CFF0925505E0926C
:10346000540584E480936D078EE780936E07109275
:103470006F075092700780915207909153072091E7
:10348000540730915507309371072093720790933A
:10349000730780937407D0927507C09276075BC953
:1034A00083E090E09093550580935405D0926D078A
:1034B00082E880936E074FC90091720710917307DD
:1034C000102701271027093F110548F083E090E0FD
:1034D0009093550580935405D0926D0772CFB70134
:1034E0000E94690E282FCB01009751F1253140F53C
:1034F00030E049E0429FF001439FF00D1124E25F6C
:10350000FB4FCC20C1F020852223E1F020171106CB
:1035100009F0C0F40190F081E02D64E777E019959F
:103520008EE723E030E0309355052093540592E474
:1035300090936D07BECF0280F381E02D1995F0CFF7
:1035400081E8EFCF82E8EDCFE459F84F2DEA2083F0
:10355000FC01E459F84F2EED24830596BFC80F9364
:103560001F93CF93DF938B01FC01FE5F2081222309
:1035700051F19C012F5F3D4F22503E4FD9012D91BB
:103580003C912F37310510F02EE730E0622FE80133
:1035900028834081442311F08F5F9D4FFC01D801A7
:1035A00080E0861790F49081329611969C93119743
:1035B000AF0142505109EA01998112969C931297EA
:1035C0008F5F1296EECF9C01D7CF220F331F2F5F54
:1035D0003F4F2D3F310579F04DEF50E0421B530B2B
:1035E00070E060E0C801820F931FDF91CF911F91BF
:1035F0000F910C943825DF91CF911F910F91089571
:103600000C94A6240C94A6240C94A6240C94A62412
:103610000C94A6240F931F93CF93DF93CDB7DEB7FF
:10362000C150D1400FB6F894DEBF0FBECDBF8C01A4
:10363000FB0140814F3708F04EE750E0C050DF4FAC
:1036400059834883C050D1406F5F7F4FCE010196B0
:103650000E942F25C050DF4FE881F981C050D14032
:1036600081E090E08C0F9D1FE80FF91F108281E030
:1036700091E0FE013196D80101900D920197E1F79A
:10368000CF5FDE4F0FB6F894DEBF0FBECDBFDF9128
:10369000CF911F910F9108950F931F93CF93DF93B5
:1036A000CDB7DEB7C150D1400FB6F894DEBF0FBE24
:1036B000CDBF8C01FB0140814F3708F04EE750E051
:1036C000C050DF4F59834883C050D1406F5F7F4F58
:1036D000CE0101960E942F25C050DF4FE881F9816D
:1036E000C050D14081E090E08C0F9D1FE80FF91F82
:1036F0001082F801EF5FFE4F81E08083D801AE5F5A
:10370000BE4F81E091E0FE01319601900D9201974C
:10371000E1F7CF5FDE4F0FB6F894DEBF0FBECDBF2F
:10372000DF91CF911F910F910895FF920F931F93F7
:10373000CF93DF938B01FC01EF5FFE4F20812223AB
:1037400019F19C012E5F3E4F21503F4FD901CD9181
:10375000DC91CF37D10510F0CEE7D0E0FC2ED801B8
:10376000CC93C11113C04EE750E04C1B5D0BCE0152
:10377000019670E060E0800F911FDF91CF911F9163
:103780000F91FF900C9438259C01DECF2081BC0165
:10379000222311F06E5F7E4FAE01C80101960E9498
:1037A0002F258EE7F812DFCFDF91CF911F910F9178
:1037B000FF9008951F920F920FB60F9211242F932E
:1037C0003F938F939F93AF93BF93809164079091A2
:1037D0006507A0916607B09167073091630723E002
:1037E000230F2D3758F50196A11DB11D20936307B6
:1037F0008093640790936507A0936607B09367076B
:103800008091680790916907A0916A07B0916B0752
:103810000196A11DB11D8093680790936907A0933D
:103820006A07B0936B07BF91AF919F918F913F91C2
:103830002F910F900FBE0F901F90189526E8230F21
:103840000296A11DB11DD2CF1F920F920FB60F92FB
:1038500011240BB60F922F933F934F935F936F9367
:103860007F938F939F93AF93BF93EF93FF938EE6D6
:1038700098E00E94E103FF91EF91BF91AF919F917A
:103880008F917F916F915F914F913F912F910F9009
:103890000BBE0F900FBE0F901F9018951F920F92A6
:1038A0000FB60F9211240BB60F922F938F939F9305
:1038B000EF93FF93E0917E08F0917F088081E09183
:1038C0008408F091850882FD1DC090818091870851
:1038D0008F5F8F7320918808821741F0E0918708ED
:1038E000F0E0E259F74F958F80938708FF91EF91B1
:1038F0009F918F912F910F900BBE0F900FBE0F9045
:103900001F9018958081F2CFFC0187ED94E09183A0
:103910008083128213821482158216821782108687
:103920001186128613861486158616861786108AC7
:10393000118A128A138A148A158A168A178A108E97
:10394000118E128E138E148E158E168E178E10A257
:1039500011A212A213A214A215A216A217A210A6B7
:1039600011A612A613A614A615A616A617A610AA87
:1039700011AA12AA13AA14AA15AA16AA17AA10AE57
:10398000DF01D99611AE11961C92119712961C92D6
:10399000129713961C92139714961C9214971596CF
:1039A0001C92159716961C92169717961C921797AD
:1039B00018961C9211961C92119712961C921297AF
:1039C00013961C92139714961C92149715961C929A
:1039D000159716961C92169717961C92179718967D
:1039E0001C92189719961C9219971A961C921A975E
:1039F0001B961C921B971C961C921C971D961C9242
:103A00001D971E961C921E971F961C921F975096EC
:103A10001C92EE5AFF4F81E080831182128208953A
:103A2000FC018FEC94E091838083128213821482D4
:103A300015821682178210861186128681E083878E
:103A4000148615860895CF93DF93EC018FED94E0F3
:103A5000998388831A821B821C821D821E821F8288
:103A6000198618861A861C861B861D861E861F864A
:103A7000198A188A1A8A1C8A1B8ACE0145960E94C6
:103A8000101D81E08BA31CA21DA2DF91CF91089590
:103A9000CF93DF93EEE6F8E01382128288EE93E094
:103AA000A0E0B0E084839583A683B78387EE94E09B
:103AB0009183808385EC90E09587848784EC90E007
:103AC0009787868780EC90E0918B808B81EC90E0EB
:103AD000938B828B82EC90E0958B848B86EC90E0CC
:103AE000978B868B118E128E138E148EEBE0F9E07D
:103AF0008DE095E09183808389EF94E093838283C6
:103B000014821582168217821086118612861386F9
:103B10001486158616861786108A118A128A138AC9
:103B2000148A158A168A178A108E118E128E138E99
:103B3000148E158E168E178E10A211A212A213A229
:103B400014A215A216A217A210A611A612A613A6B9
:103B500014A615A616A617A610AA11AA12AA13AA89
:103B600014AA15AA16AA17AA10AE11AE12AE13AE59
:103B700014AE15AE16AE17AE10924B0910924C094A
:103B800010924D0910924E0910924F09109250094F
:103B9000109251091092520910925309109254092F
:103BA000109255091092560910925709109258090F
:103BB0001092590910925A0910925B0910925C09EF
:103BC0008DE599E00E94841C82EB99E00E94841CA0
:103BD00087E09AE00E94841C8CE59AE00E94841C95
:103BE00081EB9AE00E94231D87ED9AE00E94231D3D
:103BF0008DEF9AE00E94231D83E29BE00E94841CCB
:103C000088E79BE00E94231D8EE99BE00E94841CB4
:103C100083EF9BE00E94231D89E19CE00E94841CAD
:103C20008EE69CE00E94231D84E99CE00E94841C97
:103C300089EE9CE00E94101D87EF9CE00E94101D01
:103C400085E09DE00E94101D81E08093130D10928D
:103C5000140D1092150DC8E2DDE02DE039E0398336
:103C60002883A6E1BDE020E435E011963C932E9335
:103C7000E8E1FDE010829DE2918391E392838383EA
:103C8000148215821682178241E050E060E070E0F5
:103C90004093200D5093210D6093220D7093230DBE
:103CA000D093250DC093240D81E090E09093270DD3
:103CB0008093260D26E435E030932B0D20932A0DBA
:103CC0002BE435E030932D0D20932C0DB0932F0D68
:103CD000A0932E0D9093310D8093300DDF91CF91F5
:103CE0000895CF93DF93CDB7DEB764970FB6F894FE
:103CF000DEBF0FBECDBF789484B5826084BD84B52D
:103D0000816084BD85B5826085BD85B5816085BDD6
:103D100080916E00816080936E001092810080918E
:103D20008100826080938100809181008160809316
:103D30008100809180008160809380008091B1003B
:103D400084608093B1008091B00081608093B00066
:103D500080919100826080939100809191008160B8
:103D60008093910080919000816080939000809179
:103D7000A10082608093A1008091A1008160809366
:103D8000A1008091A00081608093A000809121011A
:103D900082608093210180912101816080932101C3
:103DA0008091200181608093200180917A0084605D
:103DB00080937A0080917A00826080937A0080916B
:103DC0007A00816080937A0080917A008068809385
:103DD0007A001092C1002091300D3091310D3A8B54
:103DE000298B80912E0D90912F0D9C8B8B8B9A831C
:103DF00089831A861986312C212C712C812C912CC7
:103E00001B821C82612C512C412CA989BA89E9851D
:103E1000FA85AE17BF0709F490C0A981BA81509600
:103E20008D919C915197280E391E1296DC90129715
:103E30001396EC9013971496FC90149715960C918A
:103E4000159716961C9116971796BC91E981FA81E1
:103E5000C084B1842D2D3E2D4F2D502F612F7B2FEF
:103E60008C2D9B2DA0E00E94FE2309F054F4D12C50
:103E70006DE2E62E71E3F72E01E010E0B0E0C12C18
:103E8000B12CDD82EF82FB860C871D87BE87CF8633
:103E9000B88A272D382D492D5B816C81762D852D93
:103EA000942DA0E00E94FE2351F1AD80BF80CB8411
:103EB000DC84ED84FE840F851889272D382D492D4B
:103EC0005B816C81762D852D942D0E944E23D22E00
:103ED000E32EF42E052F162FB72FF82FE92F7A2C6B
:103EE0008B2C9C2C2C852B833D853C836E845F849E
:103EF00048882D2D3E2DA0E00E94FE23A9F489853F
:103F00009A8501969A878987A981BA815296BA8340
:103F1000A9837D808F809B84BC85BB83ED85EC83EA
:103F20006E845F84488871CFDD82EF82FB860C87C8
:103F30001D87BE87FF87E88BB8CF272D382D492DE9
:103F40005B816C81762D852D942DA0E00E94FE234F
:103F500059F4712C4DE2842E51E3952EF1E0FB8350
:103F60001C82612C512C412C709200028092010223
:103F7000909202022B81209303023C813093040231
:103F8000609205025092060240920702211480E4DA
:103F9000380608F0A3C0C101880F991F009709F4E3
:103FA000A0C00E940A249E838D8390935107809322
:103FB0005007211490E2390608F096C0C101880F1D
:103FC000991F880F991F009709F491C00E940A2435
:103FD00098878F839093570780935607309259079D
:103FE000209258071A821982312C212CA985BA8572
:103FF000E981FA81AE17BF0709F489C0AB89BC8992
:104000001296DC9012971396EC9013971496FC90EE
:10401000149715960C91159716961C91169717964E
:10402000BC91EB89FC89C084B1842D2D3E2D4F2D90
:10403000502F612F7B2F8C2D9B2DA0E00E94FE2303
:1040400009F044F4272D382D492D5B816C81762DA4
:10405000852D942DA72CB82CC92CDB80EC80F62C58
:10406000052D142D0E945023B22EA32E742F652FE0
:10407000AB89BC8950964D915C918A01000F111F4C
:104080007101EE0CFF1C6101CC0CDD1CCC0CDD1CA5
:1040900090E080E00817190769F1AB89BC891E968A
:1040A000ED91FC91E80FF91F20813181F701E80FB4
:1040B000F91FAD81BE81EA0FFB1F31832083FC0114
:1040C000EE0FFF1FEC0DFD1D2F813885E20FF31F52
:1040D000B082A182728363830296DCCF8FEF9FEF61
:1040E00060CF81E090E05DCF8FEF9FEF6FCF81E0F9
:1040F00090E06CCF240E351E89819A8101969A83B7
:104100008983AB89BC895296BC8BAB8B6FCFE09116
:104110007E08F0917F0882E08083E0917A08F09138
:104120007B081082E0917C08F0917D0880E180831B
:1041300010928608E0918208F091830886E08083DF
:10414000E0918008F0918108808180618083E09116
:104150008008F0918108808188608083E0918008E8
:10416000F0918108808180688083E0918008F091DF
:10417000810880818F7D80838EE698E090935C0536
:1041800080935B058FEF80935A058EEE92E09093BB
:1041900059058093580581E49AE0909357058093E0
:1041A000560581E08093350784E38093380784E1E6
:1041B00080933B0780933E0788E38093410790E21A
:1041C000909344078093470787E090E00E940A2479
:1041D0009093400780933F07009709F451C017E080
:1041E000FC01212F11922A95E9F788E690E00E94C0
:1041F0000A249093370780933607009709F440C04C
:1042000028E6DC011D922A95E9F780E590E00E94FE
:104210000A2490933A0780933907009789F120E5A3
:10422000FC0111922A95E9F780EA90E00E940A24A5
:1042300090933D0780933C07009711F120EADC0141
:104240001D922A95E9F787E090E00E940A24909356
:10425000460780934507009799F0FC0111921A9543
:10426000E9F780E490E00E940A249093430780934A
:104270004207009729F020E4DC011D922A95E9F716
:1042800010E000E0C801880F991FFC01EB53F94FC3
:104290007F0180819181892B49F481E090E00E9427
:1042A0000A24D7018D939C93FC0110820F5F1F4F4E
:1042B0000833110539F70091360710913707E5E803
:1042C000F6E090E080E021913191232B39F4DF0179
:1042D00012979801280F391F2D933C930296803432
:1042E000910589F7D12CC12CC601880F991F9C011B
:1042F0002B5E394F7901D9018D919C91892B49F41D
:1043000081E090E00E940A24F70191838083DC0120
:104310001C92BFEFCB1ADB0AE8E3CE16D10421F7DB
:104320002091420730914307E5EDF5E090E080E011
:1043300041915191452B39F4DF011297A901480FA2
:10434000591F4D935C9302968034910589F7EDEAED
:10435000F5E090E080E0005C1F4F21913191232B2C
:1043600039F4DF0112979801280F391F2D933C93E0
:1043700002968832910589F74091390750913A07A2
:10438000E5E8F5E090E080E021913191232B59F4AC
:10439000DF0112979C01220F331F220F331F240FBE
:1043A000351F2D933C9301968431910569F7409117
:1043B0003C0750913D07EDE5F5E090E080E021916C
:1043C0003191232B61F4DF0112979C0163E0220FEE
:1043D000331F6A95E1F7240F351F2D933C93019607
:1043E0008431910561F748EEA42E53E0B52EC12C1F
:1043F000D12CE12CF12C00E010E0272D382D492D97
:104400005B816C81762D852D942D0E945023209305
:104410005B0730935C0740935D0750935E070E94F3
:10442000420360935F0770936007809361079093E6
:104430006207992493940E94420300915F071091B0
:1044400060072091610730916207601B710B820B3E
:10445000930B00915B0710915C0720915D073091F1
:104460005E07601771078207930708F4C5C01A82B8
:104470001982809158079091590729813A8128170C
:104480003907D8F5E0915607F0915707C901880F11
:10449000991F880F991FE80FF91F208131814281F0
:1044A0005381211531054105510571F06091520785
:1044B0007091530780915407909155070E941523DE
:1044C000672B682B692B99F4E0915007F091510705
:1044D00089819A81880F991FE80FF91F8081918146
:1044E000DC01ED91FC910480F581E02D1995E981C5
:1044F000FA813196FA83E983BCCF8091520790917B
:104500005307A0915407B09155070196A11DB11D05
:104510008093520790935307A0935407B093550785
:10452000209148073091490740914A0750914B0725
:1045300060914C0770914D0780914E0790914F0705
:10454000A0900002B0900102C0900202D09003023D
:10455000E0900402F090050200910602109107021B
:104560000E94E323209348073093490740934A076A
:1045700050934B0760934C0770934D0780934E0701
:1045800090934F070E94111080915A07811118C013
:1045900090925A070E94420300915B0710915C07BA
:1045A00020915D0730915E07601B710B820B930BAE
:1045B00060935F0770936007809361079093620731
:1045C00080915F0790916007A0916107B0916207A9
:1045D00040915B0750915C0760915D0770915E07A9
:1045E000840F951FA61FB71F80935F0790936007E6
:1045F000A0936107B09362070E94420300915F0796
:10460000109160072091610730916207601B710B68
:10461000820B930B603177428105910510F00E9467
:10462000111088950E94700406CFA1E21A2EAA1BD1
:10463000BB1BFD010DC0AA1FBB1FEE1FFF1FA21752
:10464000B307E407F50720F0A21BB30BE40BF50B4F
:10465000661F771F881F991F1A9469F760957095D8
:10466000809590959B01AC01BD01CF010895EE0F9F
:10467000FF1F881F8BBF0790F691E02D1994A29F12
:10468000B001B39FC001A39F700D811D1124911D26
:10469000B29F700D811D1124911D0895689401C071
:1046A000E8948F929F92CF93DF930E945C23DF91D7
:1046B000CF919F908F90089588249924F401E4016C
:1046C000B0E49F93AA279A158B049C04ED05FE0580
:1046D000CF05D007A10798F4AD2FDC2FCF2FFE2FE9
:1046E000E92D982C892E982F872F762F652F542F00
:1046F000432F322F2227B85031F7BF9127C01B2EEE
:10470000BF91BB27220F331F441F551F661F771F02
:10471000881F991F881C991CEE1FFF1FCC1FDD1FCF
:10472000AA1FBB1F8A149B04EC05FD05CE05DF05FF
:10473000A007B10748F08A189B08EC09FD09CE09CB
:10474000DF09A00BB10B21601A94E1F62EF494015D
:10475000AF01BE01CD01000C0895002E083090F08D
:10476000982F872F762F652F542F432F322F2227F4
:104770000850F4CF220F331F441F551F661F771FA9
:10478000881F991F0A95B2F7002D089597FD109480
:10479000002E083098F00850232F342F452F562F25
:1047A000672F782F892F912DF4CF159497958795A2
:1047B0007795679557954795379527950A95AAF761
:1047C0001124002D08952A0D3B1D4C1D5D1D6E1DED
:1047D0007F1D801F911F08952A193B094C095D090F
:1047E0006E097F09800B910B08952A153B054C0536
:1047F0005D056E057F058007910708950024A7FDDC
:1048000000942A17300540055005600570058005A5
:10481000900508950F931F93CF93DF9382309105F6
:1048200010F482E090E0E091340DF091350D30E02D
:1048300020E0B0E0A0E0309799F42115310509F4AB
:104840004AC0281B390B24303105D8F58A819B8159
:104850006115710589F1FB0193838283FE0111C00B
:10486000408151810281138148175907E0F04817B0
:10487000590799F4109761F012960C9312971396BA
:104880001C933296CF01DF91CF911F910F91089524
:104890000093340D1093350DF4CF2115310551F0EF
:1048A0004217530738F0A901DB019A01BD01DF016E
:1048B000F801C1CFEF01F9CF9093350D8093340DFE
:1048C000CDCFFE01E20FF31F819391932250310966
:1048D00039832883D7CF2091320D3091330D232B8C
:1048E00041F420910A0230910B023093330D209352
:1048F000320D20910802309109022115310541F451
:104900002DB73EB740910C0250910D02241B350B80
:10491000E091320DF091330DE217F307A0F42E1B56
:104920003F0B2817390778F0AC014E5F5F4F241713
:10493000350748F04E0F5F1F5093330D4093320DF3
:10494000819391939FCFF0E0E0E09CCFCF93DF93F2
:104950000097E9F0FC01329713821282A091340D86
:10496000B091350DED0130E020E01097A1F42081E9
:104970003181820F931F2091320D3091330D281712
:10498000390709F061C0F093330DE093320DDF91E8
:10499000CF910895EA01CE17DF07E8F54A815B81E0
:1049A0009E0141155105B1F7E901FB83EA83499165
:1049B0005991C40FD51FEC17FD0761F480819181D7
:1049C0000296840F951FE9019983888382819381E0
:1049D0009B838A83F0E0E0E012968D919C9113977F
:1049E0000097B9F52D913C911197CD010296820F58
:1049F000931F2091320D3091330D2817390739F666
:104A0000309751F51092350D1092340DB093330D4F
:104A1000A093320DBCCFD383C28340815181840FD8
:104A2000951FC817D90761F44E5F5F4F8881998140
:104A3000480F591F518340838A819B8193838283CE
:104A40002115310509F0B0CFF093350DE093340D09
:104A50009ECFFD01DC01C0CF13821282D7CFFB01B4
:104A6000DC0102C001900D9241505040D8F70895EA
:104A7000DC0101C06D9341505040E0F70895F89477
:024A8000FFCF66
:104A8200002D3101000000000000360D800000C042
:104A9200C101C30302C2C60607C705C5C404CC0CC4
:104AA2000DCD0FCFCE0E0ACACB0BC90908C8D81834
:104AB20019D91BDBDA1A1EDEDF1FDD1D1CDC14D444
:104AC200D515D71716D6D21213D311D1D010F03074
:104AD20031F133F3F23236F6F737F53534F43CFC84
:104AE200FD3DFF3F3EFEFA3A3BFB39F9F83828E834
:104AF200E929EB2B2AEAEE2E2FEF2DEDEC2CE42404
:104B020025E527E7E62622E2E323E12120E0A06073
:104B120061A163A3A26266A6A767A56564A46CAC43
:104B2200AD6DAF6F6EAEAA6A6BAB69A9A86878B8B3
:104B3200B979BB7B7ABABE7E7FBF7DBDBC7CB474C3
:104B420075B577B7B67672B2B373B17170B0509073
:104B520091519353529296565797559594549C5C03
:104B62005D9D5F9F9E5E5A9A9B5B995958988848B3
:104B720049894B8B8A4A4E8E8F4F8D4D4C8C448483
:104B8200854587474686824243834181804000C1F2
:104B9200814001C0804101C0804100C1814001C00B
:104BA200804100C1814000C1814001C0804101C0FB
:104BB200804100C1814000C1814001C0804100C1EB
:104BC200814001C0804101C0804100C1814001C0DB
:104BD200804100C1814000C1814001C0804100C1CB
:104BE200814001C0804101C0804100C1814000C1BB
:104BF200814001C0804101C0804100C1814001C0AB
:104C0200804100C1814000C1814001C0804101C09A
:104C1200804100C1814000C1814001C0804100C18A
:104C2200814001C0804101C0804100C1814000C17A
:104C3200814001C0804101C0804100C1814001C06A
:104C4200804100C1814000C1814001C0804100C15A
:104C5200814001C0804101C0804100C1814001C04A
:104C6200804100C1814000C1814001C0804101C03A
:104C7200804100C1814000C1814001C0804100C12A
:104C8200814001C0804101C0804100C181409F0F2D
:104C92005407600E920F01780775076B07620701D0
:104CA2005A0757074A0741070136070D0729071E0A
:104CB2000702130710070007F50602E0062C05CDD0
:104CC20006BE0604A906A60693068406045A06DB57
:104CD200052E060B0608E105DE05AF058C050877F3
:104CE200057405610547050432052F051905FF0402
:104CF200045A0757074A074107011307100700071D
:104D0200F50602A906A6069306840604E105DE0559
:104D1200AF058C05085A06DB052E060B06085A0657
:104D2200DB052E060B06085A06DB052E060B0608C7
:104D32005A06DB052E060B06084C1B8D0F951B0A27
:104D42001B7FD10ECD0EAF1A300FFD00000000B454
:104D520004021B00000000B504041B00000000B6A2
:104D620004061B0000000003046D039A035004CBE9
:104D720003A903BD0300000000A104001B4C0AB1FB
:104D820004AE04AD04AD04A20400000000B70408A0
:104D92001BEB046A036703434F4E46494730003812
:104DA2003461343235643831353432643137623407
:104DB20061323463366665663539613035333400C5
:104DC2005441534B30005245533000504C43000085
:00000001FF
