:100000000C945D020C948E020C948E020C948E0261
:100010000C948E020C948E020C948E020C948E0220
:100020000C948E020C948E020C948E020C948E0210
:100030000C948E020C948E020C948E020C948E0200
:100040000C948E020C948E020C948E020C948E02F0
:100050000C948E020C948E020C948E020C946C1EE6
:100060000C948E020C94E01E0C94B61E0C948E021E
:100070000C948E020C948E020C948E020C948E02C0
:100080000C948E020C948E020C948E020C948E02B0
:100090000C948E020C948E020C948E020C948E02A0
:1000A0000C948E020C948E020C948E020C948E0290
:1000B0000C948E020C948E020C948E020C948E0280
:1000C0000C948E020C948E020C948E020C948E0270
:1000D0000C948E020C948E020C948E020C948E0260
:1000E0000C948E020C9444080C9448040C94C303A2
:1000F0000C94DE080C942A030C94DE020C94EF0698
:100100000C942B090C9424110C945F100C94070789
:100110000C946F070C941A090C94D3080C94AD043A
:100120000C94B5030C9499040C94F5020C949C1D4A
:100130000C94E3040C94981D0C94EC060C94530856
:100140000C94CD080C945F030C94A1070C946203EB
:100150000C94AF040C94A1030C94C30F0C940109EC
:100160000C94AC040C9435090C94B5080C94D90685
:100170000C94E3020C94FD020C94961D0C94E51D66
:100180000C941F110C9414090C9492030C942209E2
:100190000C949A1D0C9404030C941C030C947E087C
:1001A0000C940A090C94CB070C94A6040C944C07ED
:1001B0000C94F30B0C941A080C9434030C94650300
:1001C0000C940E030C9430030C948D080C940A03C9
:1001D0000C9426030C9418030C94C2100C94271E44
:1001E0000C9414030C94A0080C94A9040C94E90832
:1001F0000C94F2060C9438090C949E070C94411D43
:100200000C94EE070C94921D0C94161F0C94A504EC
:100210000C94F9020C9401030C949B070C94F608BF
:100220000C9463100C94BF060C9421070C941709CE
:100230000C9431110C9437070C9434070C94690812
:100240000C94AE040C949A040C94941D0C94D00855
:100250000C9466080C94FB030C9422030C94C008C5
:10026000580900005B0900005E09000061090000F8
:1002700064090000670900006A0900006D090000B8
:100280007009000073090000760900007909000078
:100290007C0900007F090000820900008509000038
:1002A000880900008B0900008E09000091090000F8
:1002B00094090000970900009A0900009D090000B8
:1002C000A0090000A3090000A8090000AB090F0065
:1002D000BC090000BF090F00FD090000000A0F0063
:1002E000110A0000140A0F00520A0000550A0F00FC
:1002F000660A0000690A0F00A70A0000AA0A0F0098
:10030000BB0A0000BE0A0F00FC0A0000FF0A000042
:10031000020B0300070B00000A0B0300220B000076
:10032000250B0000280B03002D0B0000300B0300F1
:10033000480B00004B0B00004E0B0300530B00005A
:10034000560B03006E0B0000710B0F00820B0000B8
:10035000850B0F00C30B0000C60B0000C90B030088
:10036000CE0B0000D10B0300E90B0000EC0B0F00DB
:10037000FD0B0000000C0F003E0C0000410C0000C3
:10038000440C0300490C00004C0C0300640C0000FA
:10039000670C0F00780C00007B0C0F00B90C0000FC
:1003A000BC0C0000BF0C0300C40C0000C70C030011
:1003B000DF0C0000E20C0F00F30C0000F60C0F0045
:1003C000340D0000370D000060025A0000002200CA
:1003D000250028002B002E0031003400020100000F
:1003E000050108010B0105050505070508080808B2
:1003F000020202020A0A08080404040401010101BD
:1004000001010101030303030303030304070707B7
:100410000C0C0C0C0C0C0C0C02020202060606065C
:10042000060606060B0B0B0B0B0B0B0B0102102029
:10043000200808102040102040800201020108041A
:1004400002010102040810204080804020100804AE
:100450000201800402018040201008040201080407
:10046000020101020408102040800102040810204B
:10047000408000000A0B02090C0D0E08070304015E
:10048000000000000000000000000000000000006C
:100490000000000000000000000000000000121139
:1004A000100000000000000000000000000000003C
:1004B0000000000000000000161F11241FBECFEF37
:1004C000DFEFDEBFCDBF00E00CBF15E0A0E0B2E083
:1004D000EEE2FDE400E00BBF02C007900D92A839E8
:1004E000B107D9F72DE0A8E9B5E001C01D92AC36FF
:1004F000B207E1F712E0CDE5D2E000E006C02197B7
:100500000109802FFE010E948D24CC35D10780E0A7
:100510000807A9F70E94731F0C9495260C940000FD
:100520004091B5075091B607E7EBF7E081E090E026
:100530004230510530F41092B6071092B507089575
:10054000C901218121939C012F5F3F4F421753071F
:10055000B9F79093B6078093B5070895282F30E038
:10056000F901EE58FB4F9491F901E45DFB4F449182
:100570002A513C4FF9012491222309F435C09923D3
:1005800011F191509231F8F4E92FF0E08827E4530B
:10059000FD4F8F4F0C948D24FD020103DE02F50206
:1005A000F902E30204030A030E03140318031C03F5
:1005B00022032603E3022A033003340380918000E0
:1005C0008F7780938000E22FF0E0EE0FFF1FE4535F
:1005D000FC4FA591B4918FB7F894EC91611148C08C
:1005E00040954E234C938FBF0895809180008F7D5E
:1005F000E8CF80918000877FE4CF84B58F7784BD7A
:10060000E2CF84B58F7DFBCF8091B0008F77809350
:10061000B000D9CF8091B0008F7DF9CF809190004C
:100620008F7780939000CFCF809190008F7DF9CF0E
:1006300080919000877FF5CF8091A0008F77809385
:10064000A000C1CF8091A0008F7DF9CF8091A00044
:10065000877FF5CF809120018F7780932001B3CFE2
:10066000809120018F7DF9CF80912001877FF5CF88
:100670004E2BB8CF3FB7F8948091B1079091B20755
:10068000A091B307B091B40726B5A89B05C02F3F32
:1006900019F00196A11DB11D3FBFBA2FA92F982FA8
:1006A0008827BC01CD01620F711D811D911D42E0A3
:1006B000660F771F881F991F4A95D1F7089581E02B
:1006C00090E008958D5F9B4F0895AF92BF92CF92B7
:1006D000DF92EF92FF920F931F93CF93DF936C0102
:1006E0007B018B01040F151FEB015E01AE18BF08E3
:1006F000C017D10759F06991D601ED91FC91019095
:10070000F081E02DC6011995892B79F7C501DF919C
:10071000CF911F910F91FF90EF90DF90CF90BF90FE
:10072000AF900895FC01538D448D252F30E0842F28
:1007300090E0821B930B541710F0CF960895019709
:100740000895FC01918D828D981761F0A28DAE0FF6
:10075000BF2FB11D5D968C91928D9F5F9F73928F7D
:1007600090E008958FEF9FEF0895FC01918D828DA9
:10077000981731F0828DE80FF11D858D90E0089576
:100780008FEF9FEF0895FC01918D228D892F90E0CE
:10079000805C9F4F821B91098F739927089587EB87
:1007A00098E00E94C30321E0892B09F420E0822F06
:1007B0000895FC01A48DA80FB92FB11DA35ABF4FF6
:1007C0002C91848D90E001968F739927848FA68950
:1007D000B7892C93A089B1898C91837080648C93A4
:1007E000938D848D981306C00288F389E02D808153
:1007F0008F7D80830895EF92FF920F931F93CF9385
:10080000DF93EC0181E0888F9B8D8C8D98131AC04B
:10081000E889F989808185FF15C09FB7F894EE8932
:10082000FF896083E889F98980818370806480838F
:100830009FBF81E090E0DF91CF911F910F91FF90DA
:10084000EF900895F62E0B8D10E00F5F1F4F0F7382
:100850001127E02E8C8D8E110CC00FB607FCFACF3D
:10086000E889F989808185FFF5CFCE010E94D903FF
:10087000F1CFEB8DEC0FFD2FF11DE35AFF4FF0820E
:100880009FB7F8940B8FEA89FB8980818062CFCF74
:10089000CF93DF93EC01888D8823B9F0AA89BB89B7
:1008A000E889F9898C9185FD03C0808186FD0DC0A2
:1008B0000FB607FCF7CF8C9185FFF2CF808185FFC3
:1008C000EDCFCE010E94D903E9CFDF91CF910895FA
:1008D00080E090E0892B29F00E94CF0381110E94D3
:1008E000000080E090E0892B49F080E090E0892BC7
:1008F00029F00E94000081110E94000080E090E039
:10090000892B49F080E090E0892B29F00E940000BB
:1009100081110E94000080E090E0892B49F080E086
:1009200090E0892B29F00E94000081110C940000B6
:1009300008950895FB011082118212821382FA0138
:1009400010821182128213820895089590E080E04F
:10095000089590E080E00895089508950895089519
:10096000DC01FB018085882329F17185628553852F
:10097000448535852685978580891896EC9118974A
:10098000E11116C07C9311966C93119712965C93AB
:10099000129713964C93139714963C9314971596AD
:1009A0002C93159716969C93169717968C931797DA
:1009B000CD01089570816181528143813481258107
:1009C00096818781DACF8AE595E00895FC018AE176
:1009D00095E091838083128213821482158216829D
:1009E000178211861086128614861386158616863F
:1009F0001786118A108A128A148A138A82E295E075
:100A0000968B858B178A108E118E128E138E148EF4
:100A1000158E168E178E81E080A311A212A283A3D9
:100A200014A215A20895FC0182E195E091838083D0
:100A30001282138214821582168217821086118602
:100A4000128613861486158616861786108A118AD2
:100A5000128A138A148A158A168A178A108E118EA2
:100A6000128E138E148E158E168E178E10A211A252
:100A700012A213A214A215A216A217A210A611A6C2
:100A800012A613A614A615A616A617A610AA11AA92
:100A900012AA13AA14AA15AA16AA17AA10AEDF0141
:100AA000D99611AE11961C92119712961C9212971C
:100AB00013961C92139714961C92149715961C92D9
:100AC000159716961C92169717961C9217971896BC
:100AD0001C9211961C92119712961C9212971396C3
:100AE0001C92139714961C92149715961C921597A6
:100AF00016961C92169717961C92179718961C928A
:100B0000189719961C9219971A961C921A971B9669
:100B10001C921B971C961C921C971D961C921D974D
:100B20001E961C921E971F961C921F9750961C9201
:100B3000EE5AFF4F81E08083118212820895CF9395
:100B4000DF93E4E5F9E08EE395E0918380838AE228
:100B500095E0938382831482158216821782108611
:100B60001186128613861486158616861786108AB5
:100B7000118A128A138A148A158A168A178A108E85
:100B8000118E128E138E148E158E168E178E10A245
:100B900011A212A213A214A215A216A217A210A6A5
:100BA00011A612A613A614A615A616A617A610AA75
:100BB00011AA12AA13AA14AA15AA16AA17AA10AE45
:100BC00011AE12AE13AE14AE15AE16AE17AE109235
:100BD0009409109295091092960910929709109213
:100BE00098091092990910929A0910929B091092F3
:100BF0009C0910929D0910929E0910929F091092D3
:100C0000A0091092A1091092A2091092A3091092B2
:100C1000A4091092A50986EA99E00E9413058BEFBA
:100C200099E00E94130580E59AE00E94130585EA89
:100C30009AE00E9413058AEF9AE00E94E60480E29F
:100C40009BE00E94E60486E49BE00E94E6048CE6BA
:100C50009BE00E94130581EC9BE00E94E60487EE76
:100C60009BE00E9413058CE39CE00E94E60482E670
:100C70009CE00E94130587EB9CE00E94E6048DED4A
:100C80009CE00E94130582E295E09093330D8093DF
:100C9000320D1092340D1092350D1092360D1092C7
:100CA000370D1092380D1092390D10923A0D1092A6
:100CB0003B0D10923C0D81E080933D0D10923E0D56
:100CC00010923F0D8093400D1092410D1092420DF5
:100CD000C5E5DDE026E539E039832883A3E4BDE0FE
:100CE00022E635E011963C932E93E5E4FDE0108278
:100CF0009DE2918391E3928383831482158216820D
:100D0000178241E050E060E070E040934D0D509359
:100D10004E0D60934F0D7093500DD093520DC093B4
:100D2000510D81E090E09093540D8093530D28E68F
:100D300035E03093580D2093570D2DE635E0309374
:100D40005A0D2093590DB0935C0DA0935B0D9093B9
:100D50005E0D80935D0DDF91CF910895282F8AEC71
:100D600093E0A0E0BB2730E0220F331F820F931FD8
:100D7000A11DB11DABBFFC01879196910895CF9342
:100D8000DF9300D01F92CDB7DEB7FB0140815181C8
:100D900062817381FC012481211104C0408351834D
:100DA000628373830F900F900F900F90DF91CF911C
:100DB0000895FC018481882351F085819681A78163
:100DC000B085FB0180839183A283B38308958081E2
:100DD0009181A281B381F5CFFC0114820895FC01B9
:100DE00014820895CF93DF93FC01EB0188819981F0
:100DF000AA81BB8121E0248385839683A783B08762
:100E000080839183A283B383DF91CF910895CF93A1
:100E1000DF9300D01F92CDB7DEB7FB014081518137
:100E200062817381FC012481211104C040835183BC
:100E3000628373830F900F900F900F90DF91CF918B
:100E40000895FC018481882351F085819681A781D2
:100E5000B085FB0180839183A283B3830895808151
:100E60009181A281B381F5CFFC0114820895CF93C3
:100E7000DF93FC01EB0188819981AA81BB8121E08C
:100E8000248385839683A783B08780839183A283FD
:100E9000B383DF91CF910895FC01DB01808581113F
:100EA0001DC07C9111966C91119712965C911297CE
:100EB00013964C91139714963C91149715962C9178
:100EC000159716969C91169717968C91708361834F
:100ED0005283438334832583968387830895FC015B
:100EE000DB0180858823F1F0718562855385448517
:100EF00035852685978580897C9311966C9311970B
:100F000012965C93129713964C93139714963C93F6
:100F1000149715962C93159716969C9316971796DB
:100F20008C93089570816181528143813481258140
:100F300096818781E1CFFC0110860895FC0110861F
:100F40000895FC01DB017C9111966C91119712962A
:100F50005C91129713964C91139714963C911497A9
:100F600015962C91159716969C91169717968C911D
:100F7000A1E0A087718762875387448735872687DA
:100F80009787808B70836183528343833483258367
:100F9000968387830895FC01DB01808581111DC044
:100FA0007C9111966C91119712965C911297139601
:100FB0004C91139714963C91149715962C91159774
:100FC00016969C91169717968C9170836183528325
:100FD000438334832583968387830895FC01DB0153
:100FE00080858823F1F07185628553854485358538
:100FF0002685978580897C9311966C93119712961C
:101000005C93129713964C93139714963C931497F2
:1010100015962C93159716969C93169717968C9366
:101020000895708161815281438134812581968147
:101030008781E1CFFC01DB017C9111966C911197C6
:1010400012965C91129713964C91139714963C91BB
:10105000149715962C91159716969C91169717969E
:101060008C91A1E0A0877187628753874487358779
:1010700026879787808B7083618352834383348371
:101080002583968387830895FC01248121110AC05A
:10109000FB014081518162817381FC014083518356
:1010A000628373830895FC018481882351F08581D4
:1010B0009681A781B085FB0180839183A283B3834E
:1010C000089580819181A281B381F5CFFC011482C2
:1010D0000895CF93DF93FC01EB0188819981AA8168
:1010E000BB8121E0248385839683A783B087808397
:1010F0009183A283B383DF91CF910895FC01248172
:1011000021110AC0FB014081518162817381FC0180
:1011100040835183628373830895FC018481882313
:1011200051F085819681A781B085FB0180839183F1
:10113000A283B383089580819181A281B381F5CF89
:10114000CF93DF93FC01EB0188819981AA81BB8158
:1011500021E0248385839683A783B087808391834E
:10116000A283B383DF91CF910895FC0122812111E5
:1011700006C0FB0120813181FC0131832083089569
:10118000FC018281882331F083819481FB0191836A
:101190008083089580819181F9CFFC0112820895A6
:1011A000FC0112820895FC01DB018D919C9121E0EC
:1011B000228394838383918380830895FC01228119
:1011C000211106C0FB0120813181FC013183208384
:1011D0000895FC018281882331F083819481FB0191
:1011E00091838083089580819181F9CFFC01DB0197
:1011F0008D919C9121E022839483838391838083CA
:101200000895FC012181211104C0FB012081FC0112
:1012100020830895FC018181882321F08281FB01D4
:10122000808308958081FBCFFC0111820895FC0129
:1012300011820895FC01DB018C9191E091838283FE
:1012400080830895FC012181211104C0FB012081CC
:10125000FC0120830895FC018181882321F0828193
:10126000FB01808308958081FBCFFC0111820895EA
:10127000FC01DB018C9191E091838283808308954E
:10128000FC018181882311F0828108958081089575
:10129000EF92FF921F93CF93DF93EC01CB017A0182
:1012A0000E944009182FC7010E94400981238883AA
:1012B00019821A82CE01DF91CF911F91FF90EF909A
:1012C0000895CF93DF93EC01CB010E9440098883FE
:1012D00019821A82DF91CF910895CF93DF93EC01A9
:1012E000CB010E9440099981911101C08883CE01F0
:1012F000DF91CF910895AF92BF92CF92DF92EF929C
:10130000FF921F93CF93DF9300D0CDB7DEB77C0160
:101310006C0188E0C80ED11CC6010E944009182F3C
:10132000570182E0A80EB11CC5010E94400991E05E
:101330001927182319831A821B82BE016F5F7F4F02
:10134000C70105960E946D09B501C6010E946D098D
:101350000F900F900F90DF91CF911F91FF90EF9022
:10136000DF90CF90BF90AF900895BF92CF92DF9261
:10137000EF92FF920F931F93CF93DF9300D0CDB7DF
:10138000DEB78C01BC016E5F7F4F47960E946D09EE
:10139000C80145960E947B09F80181A1811102C014
:1013A00081E080A3C80105960E944009F801D28817
:1013B000B284882341F0D11034C0118A108AF80118
:1013C0002089318931C0DD2021F1E388F488F801DA
:1013D000BB2011F183859485CC24C394E816F906CB
:1013E0000CF0C12CC8014A960E9440098C218983C7
:1013F0001A821B82CE0101960E944009882379F04F
:10140000D1100DC0FFEFEF1AFF0AF801F18AE08A50
:10141000D6CFE088F188DBCF80859185DDCFDD20D8
:1014200071F2F80123893489F801BB20D1F043859A
:101430005485F8018685811107C081E0241735079E
:101440000CF480E0F80185870F900F900F90DF91EA
:10145000CF911F910F91FF90EF90DF90CF90BF90B1
:10146000089540855185E5CFCF93DF93EC01CB0103
:101470000E94400991E08927888319821A82CE014F
:10148000DF91CF9108952F923F924F925F926F928A
:101490007F928F929F92AF92BF92CF92DF92EF9204
:1014A000FF920F931F93CF93DF93CDB7DEB7A7972C
:1014B0000FB6F894DEBF0FBECDBF4C0180919007F0
:1014C0008983809191078A83809192078B83809191
:1014D00093078C83809194078D83809195078E83E9
:1014E000809196078F8380919707888719861A863F
:1014F0001B861C861D861E861F86188A198A340143
:1015000010E3610E711CBE016F5F7F4FC3010E942B
:10151000B004C40102969C8F8B8FD4019D96BEA30C
:10152000ADA3BD01CE0101960E946109BE016F5FAE
:101530007F4FCE0142960E94340AF40183A588238E
:1015400081F154A4CE0142960E94400991E05110CD
:1015500090E098239D8B1E8A1F8A4B8D5C8DBE0167
:101560006B5E7F4FCE0148960E944809CE01489697
:101570000E9440098823B9F0F40183A5811102C0BB
:1015800081E082A7D40157968C915797811102C0B0
:1015900056961C92B301C4018F5B9F4F0E94B0040A
:1015A00041C052A4CFCF6B8D7C8DCE0101960E949D
:1015B0006109BE016F5F7F4FCE0142960E94340ADF
:1015C000CE0142960E944009F401F3A5FCA38823B2
:1015D00009F447C0D40191968C919197811117C05D
:1015E00059961C9259975A961C925A975B961C9240
:1015F0005B975C961C925C975D961C925D975E96DD
:101600001C925E975F961C925F9790961C92F401D5
:101610008789811101C0168AFCA1F11103C0D40190
:101620009A961C926B8D7C8D8DA19EA10E946D0956
:10163000A7960FB6F894DEBF0FBECDBFDF91CF9156
:101640001F910F91FF90EF90DF90CF90BF90AF90E0
:101650009F908F907F906F905F904F903F902F90D2
:101660000895BCA1BB2309F463C0F40184A58130B3
:10167000C9F6F401EF5BFF4F8085882309F45CC055
:101680002184B285BD8FA385AE8FB485BF8FA5851C
:10169000A8A3B685B9A3A785AAA3B089BBA3F40163
:1016A0008585882309F458C0268537854089518966
:1016B0006289738984899589A22CBD8CCE8CDF8C3C
:1016C000E8A0F9A00AA11BA10E943925D401D8964F
:1016D000EC91D897EE2309F448C0D9963C90F401D8
:1016E000F9964180528063807480B581A68117810C
:1016F0001FA3A32CB42CC52CD62CE72CFB2E0A2F11
:101700000E944B2511F00CF043C0ACA1A11104C004
:1017100082E0D4019A968C93F4018789811102C0EA
:1017200081E0868BB4016B5F7F4FC401499636CF51
:10173000D4019A968C919BCF2080A181AD8FB281EC
:10174000BE8FA381AF8FB481B8A3A581A9A3B681B1
:10175000BAA3A781ABA3A3CF25813681478150854A
:101760006185728583859485A7CFF40130A841A84F
:1017700052A863A874A8B5A9A6A9F7A9FFA3A32C8A
:10178000B42CC52CD62CE72CFB2E0A2F1F2FB8CF3C
:10179000232D342D452D562D672D7B2F8A2F9FA16C
:1017A000A22CBD8CCE8CDF8CE8A0F9A00AA11BA1D5
:1017B0000E94422529833A834B835C836D837E8319
:1017C0008F83988719861A861B861C861D861E861F
:1017D0001F86188A198ABE016F5F7F4FC401499620
:1017E0000E94B0041FCF2F923F924F925F926F9250
:1017F0007F928F929F92AF92BF92CF92DF92EF92A1
:10180000FF920F931F93CF93DF93CDB7DEB7679708
:101810000FB6F894DEBF0FBECDBF8C017C0125E072
:10182000E20EF11C3C013DE4630E711CB301CE01DC
:1018300001960E946109BE016F5F7F4FCE01049641
:101840000E94340AA801485F5F4FBE016C5F7F4F62
:10185000CE0107960E944809A701BE01695F7F4F2C
:10186000CE010A960E944809A8014E5F5F4FBE0153
:10187000665F7F4FCE010D960E944809CE010D96FE
:101880000E944009882331F0F80187AD811102C020
:1018900081E086AFB701CE0101960E946109BE01C9
:1018A0006F5F7F4FCE0104960E94340ACE010496EA
:1018B0000E944009882329F0F80187AD811101C0F9
:1018C00016AE2801FEE34F0E511CB201C8018F96DF
:1018D0000E946D09B301C801CB960E946D09680191
:1018E0002BE0C20ED11CB601C80182529C4F0E944F
:1018F0006D09C80184529C4F0E947B09F801E9518F
:10190000FC4F8181811102C081E0808378013AE43B
:10191000E30EF11CB701CE0107960E946109BE01DA
:10192000695F7F4FCE010A960E94340AB8016F5456
:101930007E4FCE0101960E946109BE016F5F7F4F0D
:10194000CE0104960E94340AAE01465F5F4FBE018D
:101950006C5F7F4FCE010D960E944809A801425F3F
:101960005F4FBE01635F7F4FCE0140960E944809E2
:10197000A8014F515C4FBE01605F7F4FCE0143967F
:101980000E944809CE0143960E944009882341F0F5
:10199000F801EF5BFF4F8181811102C081E08083FC
:1019A000B701CE0107960E946109BE01695F7F4FB2
:1019B000CE010A960E94340AB80169527E4FCE01C8
:1019C00001960E946109BE016F5F7F4FCE010496B0
:1019D0000E94340AAE01465F5F4FBE016C5F7F4FCD
:1019E000CE010D960E944809A8014F5E5F4FBE01CF
:1019F000635F7F4FCE0140960E944809A601BE0159
:101A0000605F7F4FCE0143960E944809CE01439606
:101A10000E944009F801EC5BFF4F5F01882329F029
:101A20008181811102C081E08083B701CE010196DE
:101A30000E946109BE016F5F7F4FCE0104960E9434
:101A4000340AAE014C5F5F4FB80163507E4FCE0148
:101A500007960E944809A8014C5E5F4FBE01695F6E
:101A60007F4FCE010A960E944809A601BE01665F1B
:101A70007F4FCE010D960E944809CE010D960E941F
:101A800040099801295B3F4F6901882331F0F90132
:101A90008181811102C081E080834801F1E48F0ED1
:101AA000911CC4010E944009382EC5010E944009C2
:101AB000832989831A821B82CE0101960E944009E4
:101AC000382EC6010E94400983298C831D821E8204
:101AD000CE0104960E944009882341F0F801E65B9C
:101AE000FF4F8181811102C081E08083B301CE016B
:101AF00001960E946109BE016F5F7F4FCE0104967F
:101B00000E94340AA701BE016C5F7F4FCE01079689
:101B10000E944809A201BE01695F7F4FCE010A966B
:101B20000E94480998012D5D3F4F3F8B2E8BBE01CF
:101B3000665F7F4FC9010E946D09180137E1230ECE
:101B4000311CA101B401CE0101960E944809BE01D9
:101B50006F5F7F4FC8018E5A9F4F0E946D09F80139
:101B6000EB5AFF4F808581110BC010828FE2818379
:101B700088E6828389E58383148215821682178220
:101B8000C801805B9F4F0E94430AF801EE55FF4F4A
:101B90008181811102C081E08083280186E6480EA0
:101BA000511CB201CE0101960E946109BE016F5F16
:101BB0007F4FCE0104960E94340AA401BE016C5FDF
:101BC0007F4FCE0107960E944809A101BE01695FBF
:101BD0007F4FCE010A960E944809BE01665F7F4F83
:101BE000C80186960E946D09B201C80183599D4FB4
:101BF0000E946D09480190E2890E911CB401C80150
:101C000080599D4F0E946D09F801ED58FD4F82816A
:101C1000811104C082E390E091838083C8018559DB
:101C20009D4F0E94B509F801E257FD4F8181811156
:101C300002C081E08083B80168587D4FC801C29618
:101C40000E946D09C2010E944009882371F0F801C9
:101C5000EF5BFF4F8181811101C01082F801E65BCB
:101C6000FF4F8181811101C010821801EAE12E0E1F
:101C7000311CA101B501CE0101960E944809BE01A7
:101C80006F5F7F4FC80189559F4F0E946D09F80112
:101C9000E655FF4F808581110BC010828FE2818352
:101CA00088E6828389E583831482158216821782EF
:101CB000C8018B559F4F0E94430AF801E950FF4F1E
:101CC0008181811102C081E080832801FBEB4F0EEE
:101CD000511CB201CE0101960E946109BE016F5FE5
:101CE0007F4FCE0104960E94340AA501BE016C5FAD
:101CF0007F4FCE0107960E944809A101BE01695F8E
:101D00007F4FCE010A960E944809BE01665F7F4F51
:101D1000C80189960E946D09B201C80188519D4F82
:101D20000E946D09B401C80185519D4F0E946D0943
:101D3000F801E251FD4F8281811104C082E390E0FD
:101D400091838083C8018A519D4F0E94B509F80193
:101D5000E75FFC4F8181811102C081E08083B8017F
:101D60006D507D4FC801C5960E946D09C2010E9449
:101D70004009882371F0F801EC5BFF4F81818111EC
:101D800001C01082F801E65BFF4F8181811101C023
:101D9000108228012DE1420E511CA201B601CE0194
:101DA00001960E944809BE016F5F7F4FC801825FA4
:101DB0009C4F0E946D09F801EF5EFC4F80858111F8
:101DC0000BC010828FE2818388E6828389E583835A
:101DD0001482158216821782C801845F9C4F0E946C
:101DE000430AF801E25AFC4F8181811102C081E06F
:101DF0008083580130EFA31A3EEFB30AB501CE013C
:101E000001960E946109BE016F5F7F4FCE0104966B
:101E10000E94340AA601BE016C5F7F4FCE01079677
:101E20000E944809A201BE01695F7F4FCE010A9658
:101E30000E944809BE01665F7F4FC8018C960E94D0
:101E40006D09B501C8018D599C4F0E946D09B401FF
:101E5000C8018A599C4F0E946D09F801E759FC4F4F
:101E60008281811104C082E390E091838083C80164
:101E70008F599C4F0E94B509F801EC57FC4F8181A6
:101E8000811102C081E08083B80162597C4FC80192
:101E9000C8960E946D09C5010E944009882371F00F
:101EA000F801E95BFF4F8181811101C01082F801C7
:101EB000E65BFF4F8181811101C01082A7016E890D
:101EC0007F89CE0101960E944809BE016F5F7F4F56
:101ED000C8018F5A9E4F0E946D09F801EC5AFE4FBF
:101EE000808581110CC0108288E7818381E4828320
:101EF0008BEC838382E08483158216821782C8016B
:101F0000815B9E4F0E94430AF801EF55FE4F81818D
:101F1000811102C081E08083C8018B599E4F0E94CD
:101F20004009882331F0F3018181811102C081E0F1
:101F30008083C4010E944009882361F0F3018181FC
:101F4000811101C01082F801E65BFF4F8181811190
:101F500001C0108267960FB6F894DEBF0FBECDBFEA
:101F6000DF91CF911F910F91FF90EF90DF90CF9075
:101F7000BF90AF909F908F907F906F905F904F90A9
:101F80003F902F900895CF93DF93EB010E9440097B
:101F90008883DF91CF91089590E080E0FC01EE0FFF
:101FA000FF1FE35FF84F0190F081E02D309709F0BB
:101FB000108201968833910589F7EDECF6E08DE00B
:101FC00097E0A191B191109711F01D921C928E177C
:101FD0009F07B9F7EEECF4E08EE095E0A191B191A6
:101FE000109729F01D921D921D921C9213978E1727
:101FF0009F07A1F708950F931F93882339F060E09E
:1020000070E080E090E01F910F9108950AEC13E0DA
:1020100020E033272BBFF801079116916017710755
:10202000B0F488EC93E0A0E0BB27ABBFFC01879144
:102030009691660F771F660F771F680F791FFB0158
:1020400025913491FB0132968491B901DBCF60E098
:1020500070E0D8CF0E94FB0F672B59F0853148F410
:1020600099E0899FF0011124EF5EFB4F808590E09D
:10207000089590E080E008950F931F93CF938A0115
:102080000E94FB0FE82FCB010097B1F0E531A0F4DF
:1020900029E0E29FF0011124EF5EFB4FC085CC23C5
:1020A00059F00480F581E02DB80119958C2F90E04E
:1020B000CF911F910F91089590E080E0F9CF9E5F3E
:1020C000FC0110820895EF92FF920F931F93CF931C
:1020D000DF93CDB7DEB7CC5FD2400FB6F894DEBF4A
:1020E0000FBECDBFFB0130813F3708F03EE7FB015B
:1020F000BE016F5F7D4FDB0120E0231751F042816D
:1021000051814527542745274D935D932F5F329684
:10211000F4CF30E0DE01119650E040E07D0142173F
:10212000530748F4FB0101911191BF010D931D93D9
:102130004F5F5F4FF4CFD901AA0FBB1FAE0DBF1D7C
:102140001D921C92DC01BE5F41E04C93C150DE4FFA
:1021500039832883CF5FD140119680E092E0F70168
:1021600001900D920197E1F7C450DD4F0FB6F8943E
:10217000DEBF0FBECDBFDF91CF911F910F91FF90BA
:10218000EF900895EF92FF920F931F93CF93DF93F9
:10219000CDB7DEB7CC5FD2400FB6F894DEBF0FBE2E
:1021A000CDBFFB0130813F3708F03EE7FB01BE01A8
:1021B0006F5F7D4FDB0120E0231751F04281518199
:1021C0004527542745274D935D932F5F3296F4CFD3
:1021D00030E0DE01119650E040E07D0142175307E8
:1021E00048F4FB0101911191BF010D931D934F5FC5
:1021F0005F4FF4CFA901440F551F4E0D5F1DFA012B
:1022000011821082C150DE4F39832883CF5FD140C5
:1022100020E032E0F701DC0101900D9221503040C6
:10222000D9F7C450DD4F0FB6F894DEBF0FBECDBF57
:10223000DF91CF911F910F91FF90EF9008958F5FE5
:102240009E4FFC0110820895FC012181211108C0DC
:1022500021E0FB013081311101C020E0FC0120832D
:102260000895FC0181E0DB019C91911101C080E0A7
:1022700091E091838283808308950F931F93582F59
:10228000577001E010E020E030E004C0000F111FA3
:10229000221F331F5A95D2F723E0969587952A95EA
:1022A000E1F79927E0918707F0918807662321F0ED
:1022B000E0918D07F0918E07E80FF91F808144238C
:1022C00029F0082B00831F910F9108950095082392
:1022D000F9CF23E030E030939D0520939C05E7EB98
:1022E000F7E090917D079083805881836283089501
:1022F0002091B707209530E0F901EF5EFC4F908107
:1023000090952F5E3D4FD9018C9140919C05509145
:102310009D0542505109E7EBF7E031969F01275B9D
:1023200037402417350770F420819227292F30E099
:10233000D901AF5EBC4F9C9198272F5E3D4FD901CC
:102340008C91EBCF08952F923F924F925F926F92B4
:102350007F928F929F92AF92BF92CF92DF92EF9235
:10236000FF920F931F93CF93DF93CDB7DEB7C8557E
:10237000D1090FB6F894DEBF0FBECDBF10E000E06C
:10238000F801EE0FFF1FE35FF84F0190F081E02DA1
:10239000309749F041E08081811101C040E060E068
:1023A000C8010E943D110F5F1F4F0833110541F70F
:1023B000E0907E07F0907F070DEC16E02F961FAFA0
:1023C0000EAF2F978701005C1F4FF7012DEC36E011
:1023D000D9018D919D919D01009729F0DC018D918E
:1023E0009C919183808332960E171F0789F7D12C19
:1023F000C12CF601EE0FFF1FE35AF94F0190F08157
:10240000E02D309749F041E08081811101C040E02A
:1024100061E0C6010E943D11BFEFCB1ADB0AE8E381
:10242000CE16D10431F74DE156E0E0918A07F091E4
:102430008B079F01205C3F4FDA018D919D91AD018B
:10244000009729F0DC018D919C91918380833296D5
:102450002E173F0789F7E5EFF5E06196FFAFEEAF86
:102460006197F80108E6E00EF11C25EF35E0D9018F
:102470008D919D919D01009729F0DC018D919C919A
:10248000918380833296EE16FF0689F7EDECF5E036
:102490006396FFAFEEAF6397E0918107F0918207FB
:1024A0009F01205B3F4F0DEC15E0D8018D919D9170
:1024B0008D01009749F0DC014D915D916D917C910A
:1024C000408351836283738334962E173F0769F7E5
:1024D000E5EAF5E02D96FFAFEEAF2D97E09184078A
:1024E000F09185079F0120563F4F85EA95E0DC017A
:1024F000CD90DD90CD01C114D104F1F0D601EC9066
:102500001196FC90119712960C91129713961C91AC
:10251000139714967C91149715966C9115971696AF
:102520005C91169717964C91E082F1820283138397
:1025300074836583568347833896E217F307B9F6A9
:10254000F0907D07C090A2052996CFAE2997C09044
:10255000A305D090A4052796DFAECEAE2797279689
:10256000AEADBFAD2797ED91FC9111970084F18539
:10257000E02DCD01199518161906BCF58091B50707
:102580009091B6078F3F910509F078F52796AEAD8B
:10259000BFAD2797ED91FC9111970284F385E02D53
:1025A000CD0119952091B5073091B607A9014F5F6C
:1025B0005F4F5093B6074093B5072954384FF90140
:1025C00080832FB7F8948091AD079091AE07A091CA
:1025D000AF07B091B0072FBF8093980590939905EE
:1025E000A0939A05B0939B05BACF4091B50750913F
:1025F000B6074115510509F487C08091B707F81651
:1026000019F00E949002F1CF4230510508F48AC1BE
:102610008091B80709E0802E912CA12CB12C833435
:1026200009F442C028F5813158F48F3008F03EC1DA
:102630008150863038F188248A94982C540134C013
:10264000813409F469C18234B1F74830510508F486
:1026500069C18090BD079090BE0798248924982472
:10266000B12CA12C1AE0810E911CA11CB11C1CC024
:10267000893470F4863408F04FC1843409F424C1DD
:102680008534C9F688E0882E912CA12CB12C0CC081
:102690008A3409F441C108F42DC115E0812E912C32
:1026A000A12CB12C8B3439F631E083169306A104AA
:1026B000B10408F0A6CF81149104A104B10429F05B
:1026C00084014815590508F031C12FB7F89480915D
:1026D000AD079091AE07A091AF07B091B0072FBFA3
:1026E000409198055091990560919A0570919B05CC
:1026F000841B950BA60BB70B0997A105B10520F01C
:102700001092B6071092B50740918707509188073D
:1027100030E020E0F901EE0FFF1FE35FF84F01907A
:10272000F081E02D309799F0D90183E0B695A79517
:102730008A95E1F7A40FB51F8C9190E0622F677026
:1027400002C0959587956A95E2F7817080832F5F27
:102750003F4F28333105F1F680917E0790917F0736
:10276000BC01605C7F4FDC012F96EEADFFAD2F9773
:10277000219131912F96FFAFEEAF2F9721153105A3
:1027800031F04D915C911197F9015183408312967C
:102790006A177B0749F7FB0188599F4F6196AEADD9
:1027A000BFAD61974D915D916196BFAFAEAF61973F
:1027B0004115510529F020813181DA012D933C9397
:1027C00032968E179F0751F7E0918107F0918207AB
:1027D000CF01805B9F4F6396AEADBFAD63972D91E8
:1027E0003D916396BFAFAEAF63972115310551F0B0
:1027F0004081518162817381D9014D935D936D93C5
:102800007C93139734968E179F0729F7E0918407DE
:10281000F0918507CF0180569F4F2D96AEADBFAD8D
:102820002D97ED90FD902D96BFAFAEAF2D97E11493
:10283000F104F1F00081118172816381548145813D
:1028400036812781D7010C9311961C93119712960C
:102850007C93129713966C93139714965C9314972A
:1028600015964C93159716963C93169717962C939E
:1028700038968E179F0789F6C85ADF4F0FB6F8941F
:10288000DEBF0FBECDBFDF91CF911F910F91FF90A3
:10289000EF90DF90CF90BF90AF909F908F907F9000
:1028A0006F905F904F903F902F9008954730510563
:1028B000C8F18090BD07912CB12CA12CF9E08F0EAE
:1028C000911CA11CB11CF0CE4430510558F120914F
:1028D000B9073091BA07322723273227A3E0B0E0A7
:1028E0000E9495244B015C0106E0800E911CA11C06
:1028F000B11CDACE44305105A8F08090B907909011
:10290000BA07982489249824B12CA12C26E0820EA1
:10291000911CA11CB11CC8CEA4E08A2E912CA12C24
:10292000B12CC2CE812C912C5401BECED090B807D0
:102930008FEB8D0D8A3000F190929D0580929C0561
:102940000E947811B501A401425051096109710931
:102950004954584FDA012C91B1E08B1A9108A10823
:10296000B108F401E954F84F308123273227232797
:102970002817390709F045CE0250110910939D051B
:1029800000939C056090B9077090BA07762467247D
:1029900076248091B9070091BB071091BC071027DE
:1029A00001271027E090BA07F090BB07FE24EF2420
:1029B000FE24C090BC07E2E4DE1609F4A8C7ED15BA
:1029C00008F478C0F5E0DF1609F4D8C5FD1570F1FC
:1029D000F2E0CF2EDC1409F417C5CD1450F0EE242C
:1029E000E394DE1409F487C461E070E08D2D90E07B
:1029F00041C0E3E0FE2EDF1409F4D8C124E0D21276
:102A0000F3CFC801019763E070E08D37910558F46A
:102A100020918C07C301800F911F2817190608F019
:102A20007CC562E070E084E090E024C03FE0D31613
:102A300009F4C3C53D1508F146E0D412D5CF209165
:102A400080078091830790E0880F991FE22FF0E0C4
:102A50008E0F9F1F4091860724E0429FA001112402
:102A6000480F591F6416750608F493C062E070E0C1
:102A700086E090E00E94691199C080E1D81609F4BF
:102A8000BAC291E4D912B0CFD092B80781E0809356
:102A9000B9078EE78093BA0780E00E94AE06909354
:102AA000BB078093BC0786E090E090939D058093E0
:102AB0009C057CC0A7E4DA1609F49BC7AD1508F4A1
:102AC00041C0B4E4DB1609F4A7C6DB1608F432C62D
:102AD000E5E4DE1609F463C7F6E4DF1285CF2FB70D
:102AE000F8948091AD079091AE07A091AF07B09197
:102AF000B0072FBFD092B8072EE72093B9072091D7
:102B000008022093BA0720919A0730919B074091C1
:102B10009C0750919D075093BB074093BC0730938F
:102B2000BD072093BE07B093BF07A093C007909343
:102B3000C1078093C207809109028093C3078DE08B
:102B400090E0B3CF79E4C72EDC1409F486C7DC1417
:102B500008F46EC76AE4E62EDE1409F48BC75BE462
:102B6000F52EDF1041CF813009F087C71092A20700
:102B70008BE48093B8078EE78093B90780910802B1
:102B80008093BA07809109028093BB0785E090E0AB
:102B90008CCF6E167F06D8F4660C771CE0917E070A
:102BA000F0917F07E60DF71D1183008380919C054E
:102BB00090919D0502968130914008F45CC580910A
:102BC000B80764E070E090E00E94691154C568168F
:102BD0007906F0F5A80170E060E08091810790919E
:102BE000820760FC1CC0D301AE1BBF0BFD01EE0FC2
:102BF000FF1FEC7FF370E80FF91F80819181A281A4
:102C0000B381AA27BB27BA0155274427842B952BCC
:102C1000A62BB72B80839183A283B383C7CFE09584
:102C2000F095E60DF71DEE0FFF1FEC7FF370E80F38
:102C3000F91F008111812281338100271127042B84
:102C4000152B262B372B0083118322833383AECFA2
:102C50009301237033274801B12CA12CC12CD12C16
:102C60007601E0918407F09185072115310549F53A
:102C7000681A790A660C771CB8EF6B22B7E07B22E2
:102C8000E60DF71D4080618072801381B481A581BB
:102C9000940140E050E060E070E080E090E000E30C
:102CA0000E94032524292083362931834729428322
:102CB000512B5383B62BB483A72BA583868397838D
:102CC00075CF2130310541F50FEF601A700A681A8F
:102CD000790A660C771C18EF612217E07122E60D65
:102CE000F71D4080618072801381B681A7819401B5
:102CF000A501B601C70100E20E9403252429208313
:102D00003629318347294283152B138364837583C6
:102D10008B2B86839A2BD3CF2230310529F522E0E5
:102D2000620E711C681A790A660C771C38EF6322F0
:102D300037E07322E60DF71D4080618074801581B5
:102D4000B681A7819401A501B601C70100E10E94E7
:102D50000325242920833629318342835383762A0D
:102D60007482172B1583D4CF43E0640E711C681A4C
:102D7000790A660C771C88EF682287E07822E60DD6
:102D8000F71D52814381348125819681878180821C
:102D900091825A2952834B2943833C2934832D291C
:102DA00025839E2996838F29878300CFC8010197A9
:102DB00063E070E08D379105C8F44301800E911EE9
:102DC00020918007E0918307F0E0EE0FFF1FE20FF4
:102DD000F11D80918607A4E08A9FC00111248E0F07
:102DE0009F1F8816990628F062E070E083E090E06B
:102DF00041CE000F111F0D5F1F4F10939D050093D3
:102E00009C0547EBE42E47E0F42ED7011196CD0147
:102E1000875B97408017910710F41C92F7CF83E0EF
:102E20008093B80703500093B907C0908407D090EF
:102E30008507A0908107B090820740907E07509050
:102E40007F07A22FB0E02B96BFAFAEAF2B9783E0EA
:102E500090E0DC01AE1BBF0BBEAFADAF2B962EAC2E
:102E60003FAC2B97209430948614970409F49ECE9F
:102E70002B96AEADBFAD2B976A167B0650F493012F
:102E8000220F331F240D351DD9018C9111963C91D1
:102E90001CC06E167F0680F560FC24C0C3012B9613
:102EA000AEADBFAD2B978A1B9B0B880F991F8C7FF4
:102EB00093708A0D9B1DDC014D915D916D917C910C
:102EC000AB0166277727842F352FD70113963C93C4
:102ED000139714968C93B2E0EB0EF11C0FEF601A6F
:102EE000700AC2CF9101260D371D220F331F2C7F90
:102EF00033702A0D3B1DC8CF8301037011270115C4
:102F0000110521F583010E1B1F0B000F111F087FF8
:102F100017700C0D1D1DD8012C9111963C91119725
:102F200012964C91129713965C91139714966C918C
:102F3000149715967C91159716968C91169717965F
:102F40009C9100E30E941E25822FBFCF0130110506
:102F500011F50E1B1F0B060D171D000F111F087F0B
:102F600017700C0D1D1DD8012C9111963C911197D5
:102F700012964C91129713965C91139714966C913C
:102F8000149715967C91159716968C91169717960F
:102F90009C9100E2D7CF0230110511F50E1B1F0BDB
:102FA000060D171D000F111F087F17700C0D1D1D3A
:102FB000D8012C9111963C91119712964C91129731
:102FC00013965C91139714966C91149715967C91B7
:102FD000159716968C91169717969C9100E1B2CF93
:102FE0002DAD3EAD260D371D220F331F287F3770C4
:102FF0002C0D3D1D49CFC80101978B37910540F439
:103000002091BD07C801880F991F2817190629F0BC
:1030100063E070E080E190E02DCD2301400E511E71
:1030200020918007A0918307B0E0AA0FBB1FA20FD9
:10303000B11D8091860734E0839FC00111248A0F5F
:103040009B1F4816590618F062E070E0E3CF86E057
:1030500090E090939D0580939C0580E18093B80754
:103060007092B9076092BA071092BB070093BC0731
:103070008090840790908507E0918107F091820706
:103080002B96FFAFEEAF2B97C0907E07D0907F07B7
:103090006596DFAECEAE659737EB232E37E0332E45
:1030A000A22EB12C83E090E07C01EA1AFB0A67961D
:1030B000FFAEEEAE6797F501E095F0956996FFAF2C
:1030C000EEAF69976414750409F4D5C2F101478124
:1030D0008085542F482F6A147B0490F4F301EE0F7F
:1030E000FF1F6596CEACDFAC6597EC0DFD1D5183DF
:1030F00040833FEF631A730A42E0240E311CE2CF93
:103100006A167B06D0F570E060E060FC1FC0F3013A
:10311000EA19FB09EE0FFF1FEC7FF3702B96EEAC64
:10312000FFAC2B97EE0DFF1D0081118122813381B1
:1031300022273327BA0155274427402B512B622BD6
:10314000732B4083518362837383D3CF6996EEAD33
:10315000FFAD6997E60DF71DEE0FFF1FEC7FF370D3
:103160002B96CEACDFAC2B97EC0DFD1D00811181B1
:103170002281338100271127E0CFF301E370FF277D
:103180006A01F12CE12C00E010E09801CDAEDEAE3A
:10319000EFAE2196FFAE219722960FAF229723968E
:1031A0001FAF239724962FAF249725963FAF2597DF
:1031B000309779F5F301EA1BFB0BEE0FFF1FE87F59
:1031C000F770E80DF91DD0802896DFAE2897C180F2
:1031D000D280E380F48015812DAD3EAD40E050E01B
:1031E00060E070E080E090E000E30E940325289614
:1031F0000FAD2897202B20833C2931834D29428312
:103200005E295383F62AF482172B158386839783CE
:1032100070CFE130F10579F5EA1BFB0BE60DF71DE8
:10322000EE0FFF1FE87FF770E80DF91D108128965B
:103230001FAF2897C180D280E380F68017812DAD23
:103240003EAD40E050E060E070E080E090E000E201
:103250000E94032528960FAD2897202B20833C2918
:1032600031834D294283E52AE382648375838F2964
:103270008683912BCCCFE230F10561F5EA1BFB0B85
:10328000E60DF71DEE0FFF1FE87FF770E80DF91D43
:10329000108128961FAF2897C180D480E580F680E2
:1032A00017812DAD3EAD40E050E060E070E080E081
:1032B00090E000E10E94032528960FAD2897202B6F
:1032C00020833C29318342835383D62AD482E72A40
:1032D000E582CDCF6796EEADFFAD6797E60DF71DA2
:1032E000EE0FFF1FE87FF770E80DF91D1DAD10838D
:1032F0002EAD2183FECEC801019763E070E0803DD2
:10330000974030F520918907C301800F911F62E03B
:1033100070E028171906E0F0C80123E0969587951C
:103320002A95E1F7980127703327232BA1F4039600
:1033300090939D0580939C0580919C0590919D059F
:10334000E7EBF7E08130B1E09B0738F064E070E034
:1033500081E090E08FCB0496EBCF31969F01275B05
:1033600037402817390710F41082F7CF91E0909377
:10337000B80783508093B907A0908707B09088075B
:1033800070E060E020E0C12CD12C7601C3941601DE
:103390002701022E04C0220C331C441C551C0A9425
:1033A000D2F7FB0143E0F695E7954A95E1F7E6543D
:1033B000F84F3081A301A3E056954795AA95E1F710
:1033C0004F7155274A0D5B1DDA014C9150E0B62D27
:1033D000B77002C055954795BA95E2F7822D40FF28
:1033E0000FC0832B80832F5F283009F420E0EFEF9C
:1033F0006E1A7E0A6F5F7F4F0617170741F6D6CB0E
:10340000809538233083EFCFC801019763E070E0E7
:10341000803D974030F520918F07C301800F911FA9
:1034200062E070E028171906E0F0C80133E09695D5
:1034300087953A95E1F7980127703327232BA1F45C
:10344000039690939D0580939C0580919C05909197
:103450009D05E7EBF7E0813021E0920738F064E06A
:1034600070E082E090E006CB0496EBCF31969F01AE
:10347000275B37402817390710F41082F7CF92E006
:103480009093B80783508093B90760918D0770912E
:103490008E0750E040E0B12CC12CD12C7601C394B2
:1034A000160127010B2C04C0220C331C441C551C94
:1034B0000A94D2F7FA0183E0F695E7958A95E1F749
:1034C000E654F84FA080930193E0369527959A959E
:1034D000E1F7260F372F311DD9012C9130E0B62DA1
:1034E000B77002C035952795BA95E2F7822D20FF77
:1034F00010C08A298083B394E8E0BE1201C0B12CC9
:10350000FFEF6F1A7F0A4F5F5F4F0417150741F6F1
:103510004DCB8095A822A082EECFC801880F991FBD
:10352000039690939D0580939C05E7EBF7E0DF0100
:1035300011969D01275B37402817390710F41C921C
:10354000F7CF94E09093B80783508093B907660C47
:10355000771CA0918A07B0918B07A60DB71D01506B
:10356000110932960F3F100709F420CB8C91119668
:103570009C911197129691838283F1CF01153FEFB1
:10358000130729F063E070E00115110549F48091FB
:1035900089078150990B8615970528F462E070E041
:1035A00085E090E067CA41E001151F4F09F040E057
:1035B00060E0C3010E943D11F9CA9801E3E036952D
:1035C0002795EA95E1F7822FA80147705527452BEB
:1035D00011F081E0820F980121503109203B3740E2
:1035E00020F49091BD07981729F063E070E08FE018
:1035F00090E040CA20918907C301800F911F2817CE
:10360000190618F462E070E0F2CF86E090E0909343
:103610009D0580939C058FE08093B8077092B90751
:103620006092BA071093BB070093BC07F12CE12C02
:10363000D12CF70173E0F695E7957A95E1F7E95417
:10364000F84F478150E00D2C02C0559547950A94DC
:10365000E2F7417060E0C701860D971D0E943D11A1
:10366000D394A8E0DA1201C0D12CBFEFEB1AFB0A09
:10367000E016F106F1F6E0909C05F0909D058701BB
:103680000E5F1F4F10939D0500939C050E947811BB
:10369000F701E954F84F908381832996CFAC29979D
:1036A000C7FC12C061E08C2D0E94AE0280919E0585
:1036B00090919F058230910538F0880F991F880FEF
:1036C000991F05970197F1F72796AEADBFAD2797E4
:1036D000ED91FC9111970280F381E02DA80167EB39
:1036E00077E0CD0119952796AEADBFAD2797ED9147
:1036F000FC9111970680F781E02DCD0119958091FD
:103700009E0590919F058230910538F0880F991F92
:10371000880F991F05970197F1F72996CFAC299744
:10372000C7FE02C00C94801360E08C2D0E94AE0294
:103730000C948013811165C0C090BC07D090BD0768
:103740000E94AE06009709F45CC0E816F90608F07E
:1037500058C0DC24CD24DC24C816D90608F051C09A
:10376000CE14DF0408F44DC0470162ECA62E67E0DA
:10377000B62E10E000E0B40180E00E942A109C0107
:10378000200F311F255F3F4F2130314098F4892BA6
:1037900059F0A501B40180E00E943C10009721F08F
:1037A000A80EB91E080F191FC40101967401C8168E
:1037B000D90628F5C8010B9690939D0580939C052A
:1037C00083E48093B8078EE78093B907F092BA0735
:1037D000E092BB0780919A0790919B0720919C07EC
:1037E00030919D073093BC072093BD079093BE078F
:1037F0008093BF071093C0070093C107D7C94C013E
:10380000BACF83E090E090939D0580939C0583E47C
:103810008093B80781E878C0F5E16F16710408F06D
:103820006AC0C301880F991F860D971DABEBB7E0E7
:103830008E010F5F1F4FF8019F01201B310B2817CE
:10384000390718F42D912193F7CFB12CA12C412CDD
:10385000D12CC12C4BE0E42EF12C6A147B0441F1F5
:10386000D8013C9011968C90119712968C91982CBF
:10387000882EB401832D0E942A10009791F08E0D9E
:103880009F1D81309140A0F4A7014954584FB401C5
:10389000832D0E943C10009721F0E80EF91EC80EFF
:1038A000D91E0D5F1F4F4A2CF50131965F01D5CF10
:1038B000F0929D05E0929C0584E48093B8078EE722
:1038C0008093B9071092BA074092BB0780919A077C
:1038D00090919B0720919C0730919D073093BC07E6
:1038E0002093BD079093BE078093BF07D092C00777
:1038F000C092C1075BC983E090E090939D058093DF
:103900009C05D092B80782E88093B9074FC900910F
:10391000BD071091BE07102701271027093F110589
:1039200048F083E090E090939D0580939C05D092B1
:10393000B80770CFB7010E94FB0F282FCB0100976B
:1039400051F1253140F530E049E0429FF001439FBD
:10395000F00D1124EF5EFB4FCC20C1F02085222317
:10396000E1F02017110609F0C0F40190F081E02D7C
:103970006FEB77E019958EE723E030E030939D05FB
:1039800020939C0592E49093B807BECF0280F38108
:10399000E02D1995F0CF81E8EFCF82E8EDCFD092FE
:1039A000B8078EE78093B90781E2E1E7F5E0AE0161
:1039B0004F5F5F4FDA0101900D928A95E1F7EAEBD4
:1039C000F7E0DA01CD01841B950B6D919F01275B18
:1039D0003740662311F06193F5CF2954384F4DEAF3
:1039E000D9014C93FC01E954F84F2EED2483059640
:1039F0005CC8D092B8078EE78093B90786E0E2E909
:103A0000F5E0DE01119601900D928A95E1F7FE0135
:103A10003196AAEBB7E081919D01275B374088235F
:103A200011F08D93F8CF30939D0520939C05BEC86F
:103A300088E48093B8078EE78093B90789E0809384
:103A4000BA07EFE5FDE0ABEBB7E088E69DE021913A
:103A50002D938E179F07D9F772C8D092B80784E8C4
:103A6000B2E66B16710409F485E88093B90783E028
:103A700090E01BC8D092B807F7CF81E08093A207EF
:103A800077C80F931F93CF93DF938B01FC01FE5FE9
:103A90002081222351F19C012F5F3D4F22503E4F48
:103AA000D9012D913C912F37310510F02EE730E0F0
:103AB000622FE80128834081442311F08F5F9D4FDE
:103AC000FC01D80180E0861790F49081329611961F
:103AD0009C931197AF0142505109EA0199811296C6
:103AE0009C9312978F5F1296EECF9C01D7CF220F37
:103AF000331F2F5F3F4F2D3F310579F04DEF50E0E1
:103B0000421B530B70E060E0C801820F931FDF91EE
:103B1000CF911F910F910C948E26DF91CF911F9121
:103B20000F9108950C94FC250C94FC250C94FC2515
:103B30000C94FC250C94FC250F931F93CF93DF93DB
:103B4000CDB7DEB7C150D1400FB6F894DEBF0FBE7F
:103B5000CDBF8C01FB0140814F3708F04EE750E0AC
:103B6000C050DF4F59834883C050D1406F5F7F4FB3
:103B7000CE0101960E948526C050DF4FE881F98171
:103B8000C050D14081E090E08C0F9D1FE80FF91FDD
:103B90001082F801EF5FFE4F81E08083D801AE5FB5
:103BA000BE4F81E091E0FE01319601900D920197A8
:103BB000E1F7CF5FDE4F0FB6F894DEBF0FBECDBF8B
:103BC000DF91CF911F910F9108950F931F93CF9382
:103BD000DF93CDB7DEB7C150D1400FB6F894DEBF4A
:103BE0000FBECDBF8C01FB0140814F3708F04EE77F
:103BF00050E0C050DF4F59834883C050D1406F5FC1
:103C00007F4FCE0101960E948526C050DF4FE8818C
:103C1000F981C050D14081E090E08C0F9D1FE80FEA
:103C2000F91F108281E091E0FE013196D8010190E8
:103C30000D920197E1F7CF5FDE4F0FB6F894DEBF2C
:103C40000FBECDBFDF91CF911F910F910895FF92CD
:103C50000F931F93CF93DF938B01FC01EF5FFE4F18
:103C60002081222319F19C012E5F3E4F21503F4FAE
:103C7000D901CD91DC91CF37D10510F0CEE7D0E05E
:103C8000FC2ED801CC93C11113C04EE750E04C1B61
:103C90005D0BCE01019670E060E0800F911FDF9117
:103CA000CF911F910F91FF900C948E269C01DECF37
:103CB0002081BC01222311F06E5F7E4FAE01C8014E
:103CC00001960E9485268EE7F812DFCFDF91CF9113
:103CD0001F910F91FF9008951F920F920FB60F92B0
:103CE00011242F933F938F939F93AF93BF93809112
:103CF000AD079091AE07A091AF07B091B00730919A
:103D0000AC0723E0230F2D3758F50196A11DB11DF7
:103D10002093AC078093AD079093AE07A093AF07B5
:103D2000B093B0078091B1079091B207A091B3070B
:103D3000B091B4070196A11DB11D8093B107909376
:103D4000B207A093B307B093B407BF91AF919F910F
:103D50008F913F912F910F900FBE0F901F9018954C
:103D600026E8230F0296A11DB11DD2CF1F920F92FC
:103D70000FB60F9211240BB60F922F933F934F93D0
:103D80005F936F937F938F939F93AF93BF93EF93C3
:103D9000FF9387EB98E00E94D903FF91EF91BF91C9
:103DA000AF919F918F917F916F915F914F913F91D3
:103DB0002F910F900BBE0F900FBE0F901F90189574
:103DC0001F920F920FB60F9211240BB60F922F93E2
:103DD0008F939F93EF93FF93E091C708F091C808EA
:103DE0008081E091CD08F091CE0882FD1DC09081C8
:103DF0008091D0088F5F8F732091D108821741F096
:103E0000E091D008F0E0E954F74F958F8093D00807
:103E1000FF91EF919F918F912F910F900BBE0F907B
:103E20000FBE0F901F9018958081F2CF1092BA08A4
:103E30001092B90888EE93E0A0E0B0E08093BB0850
:103E40009093BC08A093BD08B093BE088CE495E0A5
:103E50009093B8088093B70885EC90E09093C408DD
:103E60008093C30884EC90E09093C6088093C508C3
:103E700080EC90E09093C8088093C70881EC90E0B4
:103E80009093CA088093C90882EC90E09093CC0884
:103E90008093CB0886EC90E09093CE088093CD0879
:103EA0001092D0081092D1081092D2081092D30824
:103EB0000E949F05AFE5BDE090E080E041E2FC019B
:103EC0003E9621E030E08630910510F430E020E0AD
:103ED000E20FF31F40935700E491ED930196893070
:103EE000910569F70895CF93DF93CDB7DEB7649757
:103EF0000FB6F894DEBF0FBECDBF789484B5826054
:103F000084BD84B5816084BD85B5826085BD85B57D
:103F1000816085BD80916E00816080936E001092FB
:103F20008100809181008260809381008091810076
:103F30008160809381008091800081608093800007
:103F40008091B10084608093B1008091B000816065
:103F50008093B00080919100826080939100809165
:103F600091008160809391008091900081608093A6
:103F700090008091A10082608093A1008091A100B7
:103F800081608093A1008091A00081608093A00057
:103F900080912101826080932101809121018160C3
:103FA0008093210180912001816080932001809184
:103FB0007A00846080937A0080917A008260809396
:103FC0007A0080917A00816080937A0080917A00F3
:103FD000806880937A001092C10020915D0D30912D
:103FE0005E0D3A8B298B80915B0D90915C0D9A83CD
:103FF00089839C8B8B8B1A8619861C821B82912C41
:10400000812C712C612C512C412C312C212CA98913
:10401000BA89E985FA85AE17BF0709F48FC0AB8965
:10402000BC8950968D919C915197EB81FC81E80F52
:10403000F91FFC83EB831296DC9012971396EC9099
:1040400013971496FC90149715960C911597169645
:104050001C9116971796BC91EB89FC89C084B1849A
:104060002D2D3E2D4F2D502F612F7B2F8C2D9B2DD5
:10407000A0E00E94542509F054F4D12C6DE2E62E04
:1040800071E3F72E01E010E0B0E0C12CB12CDD822D
:10409000EF82FB860C871D87BE87CF86B88A292DC5
:1040A000382D472D562D652D742D832D922DA0E092
:1040B0000E94542531F1AD80BF80CB84DC84ED8437
:1040C000FE840F851889292D382D472D562D652DF5
:1040D000742D832D922D0E94A424D22EE32EF42E33
:1040E000052F162FB72FF82FE92F9A2C8B2C7C2C0D
:1040F0006C845D844E843F842888A0E00E9454250F
:10410000A1F429853A852F5F3F4F3A8729878B890C
:104110009C8942969C8B8B8B9D808F807B846C844A
:104120005D844E843F84288872CFDD82EF82FB86D7
:104130000C871D87BE87FF87E88BBDCF292D382DC3
:10414000472D562D652D742D832D922DA0E00E94B4
:10415000542559F4912C4DE2842E51E3752E66249A
:104160006394512C412C312C212C9092000280928E
:104170000102709202026092030250920402409285
:1041800005023092060220920702AB81BC818FEFBC
:104190009FEFA115E0E4BE0730F4CD01880F991F11
:1041A000009709F4A3C00E9460259E838D8390939D
:1041B0009907809398072B813C81211580E238076D
:1041C00008F097C0C901880F991F880F991F0097A1
:1041D00009F492C00E94602598878F8390939F076F
:1041E00080939E07AB81BC81B093A107A093A007E9
:1041F0001C821B821A8A198AE985FA852B813C81E7
:10420000E217F30709F48CC0A981BA811296DC90F9
:1042100012971396EC9013971496FC90149715969A
:104220000C91159716961C9116971796BC91E981DB
:10423000FA81C084B1842D2D3E2D4F2D502F612F3A
:104240007B2F8C2D9B2DA0E00E94542509F044F477
:10425000292D382D472D562D652D742D832D922D0A
:10426000A92CB82CC72CD62CE52CF42C032D122D00
:104270000E94A624B22EA32E742F652FA981BA8185
:1042800050964D915C918A01000F111FE988FA88C0
:10429000EE0CFF1CC988DA88CC0CDD1CCC0CDD1CB4
:1042A00090E080E00817190751F1A981BA811E96A4
:1042B000ED91FC91E80FF91F20813181F701E80FA2
:1042C000F91FAD81BE81EA0FFB1F31832083FC0102
:1042D000EE0FFF1FEC0DFD1D2F813885E20FF31F40
:1042E000B082A182728363830296DCCF81E090E08A
:1042F0005ACF8FEF9FEF6ECF81E090E06BCF89892F
:104300009A89840F951F9A8B898BAB81BC811196FA
:10431000BC83AB83E981FA817296FA83E9836CCF1F
:1043200081E08093090280930A021092A207809391
:1043300008029FB7F8944091AD075091AE07609185
:10434000AF077091B0079FBFE091C708F091C80810
:1043500092E09083E091C308F091C4081082E0914C
:10436000C508F091C60890E190831092CF08E091C3
:10437000CB08F091CC0896E09083E091C908F091C9
:10438000CA08908190619083E091C908F091CA08B1
:10439000908198609083E091C908F091CA0890815B
:1043A00090689083E091C908F091CA0890819F7D40
:1043B000908327EB38E03093A4052093A3059FEF6B
:1043C0009093A2052EEE32E03093A1052093A00534
:1043D00021E43AE030939F0520939E0580937D076A
:1043E00084E38093800784E180938307809386072A
:1043F00088E38093890790E290938C0780938F07DE
:1044000087E090E00E94602590938807809387075B
:10441000009709F451C0DC01E7E01D92EA95E9F745
:1044200088E690E00E94602590937F0780937E0746
:10443000009709F441C028E6DC011D922A95E9F7AE
:1044400080E590E00E946025909382078093810729
:10445000009791F120E5FC0111922A95E9F780EA95
:1044600090E00E94602590938507809384070097D1
:1044700019F120EADC011D922A95E9F787E090E026
:104480000E94602590938E0780938D070097A1F07E
:10449000FC0127E011922A95E9F780E490E00E9460
:1044A000602590938B0780938A07009729F020E47A
:1044B000DC011D922A95E9F71A82198209811A8175
:1044C000000F111F035F184FF80180819181892B24
:1044D00049F481E090E00E946025D8018D939C937F
:1044E000FC01108229813A812F5F3F4F3A83298353
:1044F0002833310519F780917E0790917F079A83C1
:104500008983EDECF6E090E080E021913191232B5E
:1045100041F4DF01129729813A81280F391F2D9329
:104520003C9302968034910581F710E000E0C801C9
:10453000880F991FDC01A35AB94F7D018D919C9181
:10454000892B49F481E090E00E946025F701918376
:104550008083DC011C920F5F1F4F0833110539F770
:1045600020918A0730918B07EDE1F6E090E080E042
:1045700041915191452B39F4DF011297A901480F60
:10458000591F4D935C9302968034910589F7E5EFAE
:10459000F5E090E080E029813A81205C3F4F3A834A
:1045A000298321913191232B41F4DF011297298135
:1045B0003A81280F391F2D933C930296883291053A
:1045C00081F74091810750918207EDECF5E090E092
:1045D00080E021913191232B59F4DF0112979C0146
:1045E000220F331F220F331F240F351F2D933C93AF
:1045F00001968431910569F74091840750918507B0
:10460000E5EAF5E090E080E021913191232B61F41F
:10461000DF0112979C0113E0220F331F1A95E1F777
:10462000240F351F2D933C9301968431910561F73A
:104630002091000230910102409102025091030248
:104640006091040270910502E8EEAE2EF3E0BF2EF9
:10465000C12CD12CE12CF12C00E010E0809106025D
:10466000909107020E94A6242093A4073093A507E7
:104670004093A6075093A7070E943A036093A807A8
:104680007093A9078093AA079093AB0799249394FA
:104690000E943A030091A8071091A9072091AA0748
:1046A0003091AB07601B710B820B930B0091A40739
:1046B0001091A5072091A6073091A70760177107F1
:1046C0008207930708F4EEC080910A02811102C0AC
:1046D0001092A20790920A02909209028091A2077A
:1046E0008823A9F080910802882371F00E949F0519
:1046F0000E94CC0F10929A0710929B0710929C0771
:1047000010929D07109208020E94CC0F5BC09092FD
:1047100008021A8219828091A0079091A107A981AD
:10472000BA81A817B907D8F5E0919E07F0919F07C5
:10473000CD01880F991F880F991FE80FF91F20815D
:10474000318142815381211531054105510571F0B7
:1047500060919A0770919B0780919C0790919D07AB
:104760000E946B24672B682B692B99F4E0919807C2
:10477000F091990789819A81880F991FE80FF91F95
:1047800080819181DC01ED91FC910480F581E02D27
:104790001995E981FA813196FA83E983BCCF80913A
:1047A0009A0790919B07A0919C07B0919D07019655
:1047B000A11DB11D80939A0790939B07A0939C071E
:1047C000B0939D0780910802813091F52091900768
:1047D000309191074091920750919307609194070F
:1047E000709195078091960790919707A09000028D
:1047F000B0900102C0900202D0900302E090040247
:10480000F090050200910602109107020E943925DE
:10481000209390073093910740939207509393070A
:1048200060939407709395078093960790939707EA
:104830000E94A3118091A307811118C09092A30731
:104840000E943A030091A4071091A5072091A607A2
:104850003091A707601B710B820B930B6093A80725
:104860007093A9078093AA079093AB078091A8073C
:104870009091A907A091AA07B091AB074091A40716
:104880005091A5076091A6077091A707840F951F07
:10489000A61FB71F8093A8079093A907A093AA0704
:1048A000B093AB070E943A030091A8071091A907A3
:1048B0002091AA073091AB07601B710B820B930B01
:1048C000603177428105910510F00E94A31188950F
:1048D0000E946804DDCEA1E21A2EAA1BBB1BFD01BB
:1048E0000DC0AA1FBB1FEE1FFF1FA217B307E407CF
:1048F000F50720F0A21BB30BE40BF50B661F771F27
:10490000881F991F1A9469F7609570958095909506
:104910009B01AC01BD01CF010895EE0FFF1F881F61
:104920008BBF0790F691E02D1994A29FB001B39F21
:10493000C001A39F700D811D1124911DB29F700DA8
:10494000811D1124911D0895689401C0E8948F92EF
:104950009F92CF93DF930E94B224DF91CF919F90DB
:104960008F90089588249924F401E401B0E49F9382
:10497000AA279A158B049C04ED05FE05CF05D007E8
:10498000A10798F4AD2FDC2FCF2FFE2FE92D982C07
:10499000892E982F872F762F652F542F432F322F54
:1049A0002227B85031F7BF9127C01B2EBF91BB27DC
:1049B000220F331F441F551F661F771F881F991F23
:1049C000881C991CEE1FFF1FCC1FDD1FAA1FBB1FD9
:1049D0008A149B04EC05FD05CE05DF05A007B10791
:1049E00048F08A189B08EC09FD09CE09DF09A00BE5
:1049F000B10B21601A94E1F62EF49401AF01BE01CF
:104A0000CD01000C0895002E083090F0982F872FCC
:104A1000762F652F542F432F322F22270850F4CFA3
:104A2000220F331F441F551F661F771F881F991FB2
:104A30000A95B2F7002D089597FD1094002E0830C6
:104A400098F00850232F342F452F562F672F782F9B
:104A5000892F912DF4CF1594979587957795679524
:104A600057954795379527950A95AAF71124002D54
:104A700008952A0D3B1D4C1D5D1D6E1D7F1D801F61
:104A8000911F08952A193B094C095D096E097F0998
:104A9000800B910B08952A153B054C055D056E05AD
:104AA0007F058007910708950024A7FD00942A1729
:104AB0003005400550056005700580059005089596
:104AC0000F931F93CF93DF938230910510F482E010
:104AD00090E0E0916A0DF0916B0D30E020E0B0E0E5
:104AE000A0E0309799F42115310509F44AC0281B3C
:104AF000390B24303105D8F58A819B816115710508
:104B000089F1FB0193838283FE0111C040815181B1
:104B10000281138148175907E0F04817590799F4A3
:104B2000109761F012960C93129713961C9332967D
:104B3000CF01DF91CF911F910F91089500936A0DDE
:104B400010936B0DF4CF2115310551F04217530727
:104B500038F0A901DB019A01BD01DF01F801C1CFE5
:104B6000EF01F9CF90936B0D80936A0DCDCFFE01CD
:104B7000E20FF31F819391932250310939832883E7
:104B8000D7CF2091680D3091690D232B41F42091EE
:104B90000D0230910E023093690D2093680D209123
:104BA0000B0230910C022115310541F42DB73EB7AF
:104BB00040910F0250911002241B350BE091680DBB
:104BC000F091690DE217F307A0F42E1B3F0B281795
:104BD000390778F0AC014E5F5F4F2417350748F076
:104BE0004E0F5F1F5093690D4093680D8193919311
:104BF0009FCFF0E0E0E09CCFCF93DF930097E9F008
:104C0000FC01329713821282A0916A0DB0916B0D54
:104C1000ED0130E020E01097A1F420813181820F76
:104C2000931F2091680D3091690D2817390709F0FD
:104C300061C0F093690DE093680DDF91CF91089505
:104C4000EA01CE17DF07E8F54A815B819E01411535
:104C50005105B1F7E901FB83EA8349915991C40FEA
:104C6000D51FEC17FD0761F4808191810296840FB6
:104C7000951FE90199838883828193819B838A832D
:104C8000F0E0E0E012968D919C9113970097B9F5B2
:104C90002D913C911197CD010296820F931F209187
:104CA000680D3091690D2817390739F6309751F59D
:104CB00010926B0D10926A0DB093690DA093680D60
:104CC000BCCFD383C28340815181840F951FC81705
:104CD000D90761F44E5F5F4F88819981480F591F52
:104CE000518340838A819B8193838283211531057F
:104CF00009F0B0CFF0936B0DE0936A0D9ECFFD01EC
:104D0000DC01C0CF13821282D7CFFB01DC0102C0CD
:104D100001900D9241505040D8F70895DC0101C038
:0E4D20006D9341505040E0F70895F894FFCF96
:104D2E00002D31010000000001010100006C0D801A
:104D3E000000C0C101C30302C2C60607C705C5C431
:104D4E0004CC0C0DCD0FCFCE0E0ACACB0BC9090861
:104D5E00C8D81819D91BDBDA1A1EDEDF1FDD1D1CA1
:104D6E00DC14D4D515D71716D6D21213D311D1D031
:104D7E0010F03031F133F3F23236F6F737F53534D1
:104D8E00F43CFCFD3DFF3F3EFEFA3A3BFB39F9F8A1
:104D9E003828E8E929EB2B2AEAEE2E2FEF2DEDEC41
:104DAE002CE42425E527E7E62622E2E323E1212071
:104DBE00E0A06061A163A3A26266A6A767A5656471
:104DCE00A46CACAD6DAF6F6EAEAA6A6BAB69A9A8E1
:104DDE006878B8B979BB7B7ABABE7E7FBF7DBDBC21
:104DEE007CB47475B577B7B67672B2B373B17170B1
:104DFE00B050909151935352929656579755959411
:104E0E00549C5C5D9D5F9F9E5E5A9A9B5B99595820
:104E1E0098884849894B8B8A4A4E8E8F4F8D4D4CC0
:104E2E008C448485458747468682424383418180F0
:104E3E004000C1814001C0804101C0804100C1815C
:104E4E004001C0804100C1814000C1814001C0804D
:104E5E004101C0804100C1814000C1814001C0803C
:104E6E004100C1814001C0804101C0804100C1812B
:104E7E004001C0804100C1814000C1814001C0801D
:104E8E004100C1814001C0804101C0804100C1810B
:104E9E004000C1814001C0804101C0804100C181FC
:104EAE004001C0804100C1814000C1814001C080ED
:104EBE004101C0804100C1814000C1814001C080DC
:104ECE004100C1814001C0804101C0804100C181CB
:104EDE004000C1814001C0804101C0804100C181BC
:104EEE004001C0804100C1814000C1814001C080AD
:104EFE004100C1814001C0804101C0804100C1819B
:104F0E004001C0804100C1814000C1814001C0808C
:104F1E004101C0804100C1814000C1814001C0807B
:104F2E004100C1814001C0804101C0804100C1816A
:104F3E004031111409C30F241101380935092B0909
:104F4E002209011A0917090A09010901F608CD08F3
:104F5E00E908DE0802D308D008C008B50802A00888
:104F6E00EC068D087E080469086608530844080498
:104F7E001A089B07EE07CB0708A1079E076F074C81
:104F8E000708370734072107070704F206EF06D98B
:104F9E0006BF06041A0917090A09010901D308D028
:104FAE0008C008B50802690866085308440804A139
:104FBE00079E076F074C07081A089B07EE07CB07DB
:104FCE00081A089B07EE07CB07081A089B07EE077F
:104FDE00CB07081A089B07EE07CB07089C1D1F116D
:104FEE00271EE51D7F63105F10411DC210FD0000DE
:104FFE0000000000000000000000000000000000A3
:10500E000000000000000000000000000000000092
:10501E000000000000000000000000000000000082
:10502E000000000000000000000000000000000072
:10503E000000AD04961D00000000AE04981D000097
:10504E000000AC04941D000000009904921DF30BA7
:10505E00A904A604A504A5049A0400000000AF0448
:10506E009A1DE30462035F0300000000FB03650367
:10507E0092034804C303A103B503434F4E46494769
:10508E0030005441534B30005245533000504C4386
:10509E000061353164626230663966633932376277
:1050AE003065326663656565313336363663336136
:0850BE006200342E322E37008F
:00000001FF
